:020000040800F2
:1000000060070120C10100084BBC00088193000873
:10001000E1BB0008AF150008D12201080000000074
:10002000000000000000000000000000F3010008D4
:100030003521000800000000B9090008E5DA0008D1
:10004000FB010008FB010008FB010008110001088A
:10005000FB010008FB010008FB010008FB01000890
:10006000FB010008FB010008FB010008FB01000880
:10007000FB010008FB010008C51B0008FB0100088C
:10008000FB010008FB0100084D0A0008FB01000805
:10009000FB010008FB010008FB010008FB01000850
:1000A000FB010008FB010008FB010008FB01000840
:1000B000FB010008FB010008FB010008FB01000830
:1000C000FB010008FB010008FB010008FB01000820
:1000D000FB010008FB010008FB010008FB01000810
:1000E000FB01000825FC0008FB010008FB010008DB
:1000F000FB010008FB010008FB010008FB010008F0
:10010000FB010008FB010008FB010008FB010008DF
:100110004D1C0108FB010008FB010008FB01000861
:10012000FB0100082D1C0008FB010008FB01000872
:10013000FB010008FB010008FB010008FB010008AF
:10014000FB010008FB010008FB010008FB0100089F
:10015000FB010008FB010008FB0100086D1D010800
:10016000FB010008FB010008FB010008FB0100087F
:10017000FB010008FB010008FB010008FB0100086F
:10018000FB010008FB010008891C0108FB010008B5
:10019000FB010008FB010008FB010008FB0100084F
:1001A00051B80008FB010008F91B0008DFF80CD06B
:1001B00000F06EFB0048004765E70108600701207A
:1001C0000E488047DFF83800016841F47001016093
:1001D000BFF34F8FDFF82C00016821F04041016030
:1001E000BFF36F8F08480047FEE7FEE7FEE7FEE734
:1001F000FEE7FEE7FEE7FEE7FEE7FEE7151701086C
:1002000088ED00E034EF00E0AD01000872B6704701
:1002100062B67047EFF3108072B6704780F31088B3
:10022000704730BF704720BF7047B0FA80F070470A
:1002300090FAA0F0B0FA80F0704790FAA0F0704702
:100240002DE9F05F0546002092469B46884606460B
:10025000814640241BE0284641464746224600F09E
:1002600020F853465A46C01A914110D311461846F9
:10027000224600F077FA2D1A67EB01084F46224616
:100280000120002100F06EFA17EB00094E41201EFC
:10029000A4F10104DFDC484631462A464346BDE866
:1002A000F09F202A04DB203A21FA02F00021704757
:1002B00021FA02F3D040C2F12002914008431946CE
:1002C000704710B5431A934209D28318881803E087
:1002D00010F8011D03F8011D521EF9D210BD40EAAD
:1002E00001039B0703D009E008C9121F08C0042AB4
:1002F000FAD203E011F8013B00F8013B521EF9D29B
:1003000010BDD2B201E000F8012B491EFBD27047AC
:100310000022F6E710B513460A4604461946FFF7D1
:10032000F0FF204610BD421C10F8011B0029FBD134
:10033000801A7047034611F8012B00F8012B002AA0
:10034000F9D1184670472DE9FE4F804681EA030037
:10035000C00F0C46009021F0004123F00045B8EB9F
:100360000200A94105D24046214690461C460B4654
:10037000024623F00040104347D0270DC7F30A0080
:10038000C3F30A510290401A019040286BDAC3F37C
:10039000130040F4801B0098924620B10023D2EB5A
:1003A000030A63EB0B0B01985946C0F1400250461B
:1003B00000F0D8F906460D4650465946019A00F01D
:1003C000E0F910EB08006141002487EA115284EA49
:1003D000E7731A4340D0009A62B3019A012A4FEAA8
:1003E000075215DC001B61EB02014FF0004202EAEC
:1003F0000752CDE90042001C41F5801132462B46E0
:1004000000F0E0F903B0BDE8F08F40462146F9E77F
:10041000001B61EB0201001C41F5801300185B41D9
:100420002018A2F5001747EB030140EAD570B61972
:100430006D4111E06D084FEA360645EAC0754FEA96
:100440000752001B61EB0201001C41F580114908B5
:100450004FEA30000019514132462B4603B0BDE847
:10046000F04F00F0A0B90098012240000023D0EB2B
:10047000020263EBE073009821464FEAE074B8EBA8
:10048000000061EB0401E9E783F000435BE781F0E2
:10049000004158E72DE9FE4F81EA030404F00044CF
:1004A00021F0004100944FF0000B23F0004350EA8C
:1004B00001045ED052EA03045BD0C3F30A54C1F3D3
:1004C0000A552C44A4F2F3340194A0FB0254C1F366
:1004D000130141F48011C3F3130343F4801301FBB0
:1004E000024400FB034E840A970A44EA815447EA17
:1004F0008357A4FB076802958D0A05FB07854FEA21
:10050000932C04FB0C542705029D4FEA065847EA3A
:100510001637B5EB08056EEB070C870E920E47EA0F
:10052000811742EA8312A7FB0201B6EB0B0164EBD1
:1005300000042B0D43EA0C335E1844EB1C50DA46E2
:100540005146E7FB0201C5F313044FEA0B3343EABC
:1005500014534FEA0432019C43EA0603A4F10C044D
:100560000294009CCDE900B400F02CF903B0BDE882
:10057000F08F00200146F9E72DE9F04D81EA0304F0
:1005800004F0004B21F0004514464FF0000A23F020
:10059000004150EA050220D054EA01021DD0C5F303
:1005A0000A570246C5F31303C1F31300C1F30A56F9
:1005B00040F4801543F48013A7EB0608101BD646C1
:1005C00008F2FD3873EB050002D308F1010801E0E1
:1005D00092185B41B8F1000F03DA00200146BDE834
:1005E000F08D00204FF48011064684460EE0171B64
:1005F00073EB050705D3121B63EB050306434CEAB7
:10060000010C49084FEA300092185B4150EA01079B
:10061000EDD152EA030012D082EA040083EA050118
:10062000084305D0101BAB4106D20122002306E08F
:1006300000224FF0004302E06FF0010253101AEB6A
:1006400006004CEB085110EB0A0041EB0B01BDE832
:10065000F04D00F0A8B80EB540F2334102910021F0
:10066000CDE900110A460B4600F0ACF803B000BD1E
:1006700070B5C1F30A5201F000450024C1F3130123
:1006800040F2FF3341F480119A4201DA002070BD3C
:1006900040F233439A42A2F2334203DC5242FFF764
:1006A00000FE00E090402C43F1D0404270BDC1F309
:1006B0000A5210B5C1F3130140F2FF3341F4801127
:1006C0009A4201DA002010BD40F233439A42A2F26E
:1006D000334203DC5242FFF7E4FD10BD904010BDF1
:1006E00000F0004230F000400AD0C10D01F5607109
:1006F000C0F3160042EA0151C20840071143704797
:10070000002001467047000030B5041E71F100045E
:1007100004DB4FF00044404264EB0101141E73F10E
:10072000000405DB1C464FF00043524263EB040318
:10073000994208BF904230BD30B50B4601460020BB
:100740002022012409E021FA02F59D4205D303FA93
:1007500002F5491B04FA02F52844151EA2F1010214
:10076000F1DC30BD202A04DB203A00FA02F100203F
:1007700070479140C2F1200320FA03F319439040DF
:100780007047202A06DBCB17203A41FA02F043EAF1
:10079000E07306E041FA02F3D040C2F1200291403A
:1007A00008431946704710B5141E73F1000408DAA7
:1007B000401C41F1000192185B411A4301D120F025
:1007C000010010BD2DE9F04D92469B4611B1B1FAE2
:1007D00081F202E0B0FA80F220329046FFF7C2FFC9
:1007E00004460F4640EA0A0041EA0B0153465A46C6
:1007F000084313D0114653EA010019D0C8F1400252
:100800005046FFF74EFD05460E46504659464246B5
:10081000FFF7A8FF084305D0012004E02046394631
:10082000BDE8F08D0020054346EAE0762C433743CF
:100830000A986305E40AA0EB08000022FD0A44EAD6
:1008400047540A3002D500200146E9E70105101996
:100850006941DDE9084500196941BDE8F04DA2E7AD
:10086000C1F30A52C1F3130140F2FF3341F4801186
:100870009A4202DA00200146704740F233439A421E
:10088000A2F2334202DC5242FFF70BBDFFF76ABF10
:10089000064C074D06E0E06840F0010394E80700CD
:1008A00098471034AC42F6D3FFF784FC6CEE030893
:1008B0008CEE030870B58C1810F8015B15F0070377
:1008C00001D110F8013B2A1106D110F8012B03E0E9
:1008D00010F8016B01F8016B5B1EF9D12B0705D4F1
:1008E0000023521E0DD401F8013BFAE710F8013B3A
:1008F000CB1A921C03E013F8015B01F8015B521E56
:10090000F9D5A142D8D3002070BD0000EFF30981D2
:1009100041B1F1EE101A40F8041D20ED200A3A49C9
:100920000A6810607047B0EC200A02C8E1EE101AA5
:1009300036490A681060704772B64EF62250CEF201
:10094000000040F2FF01C0F20001017040F2B0105F
:10095000C2F20000016881F3088840F21A10C2F266
:10096000000040F21B11C2F200010A78027040F24E
:10097000A815C2F2000540F2AC11C2F200010A68EB
:100980002A60106880F309884FF0020080F3148811
:10099000BFF36F8FBDE8F00F0FBCBDE8005006BC81
:1009A00062B608471A484FF08051016070471848F6
:1009B0004FF080510160704772B6EFF3098020E973
:1009C000F00F40F2A815C2F200052E6830607446A0
:1009D0000CF07EFE40F21A10C2F2000040F21B1131
:1009E000C2F200010A78027040F2AC11C2F20001BA
:1009F0000A682A6044F0F40E1068B0E8F00F80F343
:100A0000098862B670470000A8010020AC010020F0
:100A100004ED00E000220A12D34303607047014650
:100A2000C86C80B2704770B50246002000230024D5
:100A30000B12556801268E4005EA060415681D4014
:100A400015B10CB1012000E0002070BD10B540F2DE
:100A500005210848FFF7E7FF012804D10548FFF703
:100A6000DEFF0549088040F205210248FFF7D2FF6A
:100A700010BD0000002001403C00002008B56B467E
:100A800001220BA10E480BF0F3FD6B4601220DA1D4
:100A90000F480BF0EDFD6B4601220EA110480BF044
:100AA000E7FD6B4600220FA111480BF0E1FD08BDE8
:100AB0004170705072696E746653656D700000000D
:100AC0007C640020574946495F53454D00000000B3
:100AD000CC64002053454E534F525F53454D0000A8
:100AE000F464002053454D5F53594E4348000000C5
:100AF000A464002008B51DF06FFB4CA000F024FAA0
:100B000092E04F48807820B14E480078401C4D4913
:100B100008704B48007928B34B480078401C4A497C
:100B200008704A49096A06290CD147490878C11753
:100B300000EB5171C910A0EBC10119B901201DF0E2
:100B40003DFC0FE04149096A01290BD13E49087873
:100B5000C11700EB5171C910A0EBC10111B90620FA
:100B60001DF02CFC3648807858B13648007828288B
:100B700007D90020324988703249087015201DF0CD
:100B80001DFC2F48007958B12F4800781E2807D93E
:100B900000202B4908712C49087012201DF00EFC12
:100BA00027480079A8B12648407990B910201DF057
:100BB00005FC6A46002164200CF0FCFD06201DF0B7
:100BC000FDFB6A46002164200CF0F4FD01201C4965
:100BD00048711B48807868B11948C07850B9052021
:100BE0001DF0ECFB6A46002164200CF0E3FD0120BF
:100BF0001349C8701548006A012804D0052805D09B
:100C0000062809D105E000F055FF06E000F05AFF84
:100C100003E000F047FF00E000BF00BF6A4600218C
:100C20004FF47A700CF0C6FD6BE700000D0A2E2E13
:100C30002E73656E736F722E2E2E0D0A000000004B
:100C4000F5010020110000201000002068000120A4
:100C500000B58BB00AA8032100220592CDE9062138
:100C6000089010464FF400713322134BCDE9013246
:100C7000CDE9031004200023104A11A1009014486C
:100C80000BF0D6FF0AA8072100220592CDE9062124
:100C9000089010464FF40061CC220E4BCDE9013292
:100CA000CDE90310082000230B4A0CA100900F4847
:100CB0000BF0BEFF0BB000BD4C0F0020F50A000882
:100CC000417070205461736B20434F4D0000000051
:100CD000800E0020E41A0020F10C00084170702002
:100CE0005461736B2047554900000000181A00201A
:100CF00086B018A000F028F905A80021194A0123A0
:100D0000CDE90032CDE902100B460A2216A118489F
:100D10000CF00EFE05A916480CF074FE05A8002183
:100D2000144A0123CDE90032CDE902100B460A2214
:100D300011A112480CF0FCFD05A910480CF062FE50
:100D400007E010F047FB05AA00214FF47A700CF081
:100D500031FDF6E70D0A2E2E2E656D57696E2E2E8B
:100D60002E0D0A00CDEC0108746F75636800000059
:100D70006C660020B5EC01086B6579003C660020CC
:100D800008B500BF00BF00F05DFD1DF093F900F055
:100D9000C7F968460BF0C2FE00F0C2FDFFF758FF2E
:100DA000FFF76CFE05E06A4600214FF4FA600CF094
:100DB00001FDF8E730B587B00546002016490290DE
:100DC000CDE9030105900220002140F256334FF493
:100DD000F072CDE900102821002011F07BFC0F49B2
:100DE000086000204FF4AB610223CDE90130CDE96A
:100DF00003100A4800687C234FF4F07240F2DA21B5
:100E00000090002000F034FA04460549204600F026
:100E1000B3FB07B030BD000041CD01082C0200201B
:100E20006958010830B587B0054600201649029080
:100E3000CDE9030105900220002140F256334FF422
:100E4000F072CDE900102821002011F043FC0F4979
:100E5000086000204FF4AB610223CDE90130CDE9F9
:100E600003100A4800687C234FF4F07240F2DA2144
:100E70000090002000F0FCF904460549204600F0EF
:100E80007BFB07B030BD000041CD01082C020020E3
:100E90006958010830B587B0054600201649029010
:100EA000CDE9030105900220002140F256334FF4B2
:100EB000F072CDE900102821002011F00BFC0F4941
:100EC000086000204FF4AB610223CDE90130CDE989
:100ED00003100A4800687C234FF4F07240F2DA21D4
:100EE0000090002000F0C4F904460549204600F0B7
:100EF00043FB07B030BD000041CD01082C020020AB
:100F00006958010810B586B004460D480068A0B9BC
:100F100000200C490290CDE9030105900220002138
:100F20004FF4CD734FF4F072CDE900104FF4B97166
:100F3000002011F0CFFB0249086006B010BD000090
:100F400038020020B1CD01080FB400B599B01BA83C
:100F50000390512104A8039B1A9A1BF04FFD002017
:100F6000039002A800231A461946009007480BF088
:100F7000C3FB04A906A01BF01DFD02AA0021034823
:100F80000BF09EFC19B05DF814FB00007C6400209F
:100F90002573000030B587B0054600201649029041
:100FA000CDE9030105900220002140F256334FF4B1
:100FB000F072CDE900102821002011F08BFB0F49C1
:100FC000086000204FF4AB610223CDE90130CDE988
:100FD00003100A4800687C234FF4F07240F2DA21D3
:100FE0000090002000F044F904460549204600F036
:100FF000C3FA07B030BD000041CD01082C0200202B
:10100000695801082DE9FC4180460E460024002560
:10101000002700200090019007226946404600F01A
:10102000C8FA04466CB900BF05E01DF80500384455
:10103000C7B2681CC5B2072DF7DB37B10120BDE888
:10104000FC81022C01D12046F9E79DF801009DF8B2
:10105000001040EA012030600020F0E72DE9F04761
:1010600086B082460E461746984600240025A146C3
:10107000142101A8FFF74CF9112201A9504600F0F4
:1010800098FA04468CB900BF06E001A8405D4844C8
:1010900000F0FF09681CC5B2112DF6DBB9F1000F95
:1010A00007D0012006B0BDE8F087022C01D1204610
:1010B000F8E79DF8040000069DF8051040EA01409D
:1010C0009DF8061040EA01209DF8071008433060A3
:1010D0009DF8080000069DF8091040EA01409DF8BF
:1010E0000A1040EA01209DF80B10084338609DF873
:1010F0000C0000069DF80D1040EA01409DF80E100E
:1011000040EA01209DF80F100843C8F800000020B5
:10111000C8E71FB568460EF079FC019804B010BD11
:1011200070B5FFF7F6FF044603480068B4FBF0F51E
:1011300028460CF0F7FC70BDD0EF010838B54468C4
:1011400005460146204611F0E0F8002808BF38BDEA
:10115000464A286811280DD006DC0B282AD00E2814
:1011600038D00F2817D07CE0282873D0B0F5107F36
:101170000AD076E09268002A08BF38BD294601B03F
:101180002046BDE830401047526801B0294620464D
:10119000BDE8304010472546204602F059FB00903C
:1011A000406E0468684602F0EBFB002C1CBF28462A
:1011B000A04738BD204602F04BFB0090683002F09B
:1011C00049FA009803216C3002F072FA684602F086
:1011D000D7FB46E0E968486809680D2902D0202954
:1011E00018D037E0002835DD4FF48071204611F02B
:1011F00057F9204602F02CFB009090F828506846E2
:1012000002F0BEFB15F0020F1ED00121204612F0A5
:10121000D6FC19E0002817DD25464FF480712046E2
:1012200011F03EF9284602F013FB009090F8284098
:10123000684602F0A5FB14F0020F08BF38BD01217B
:10124000284612F0BCFC38BD2046BDE838400221DB
:101250001AF0EDBAE86820B920464FF4807111F019
:1012600039F82846BDE8384011F030BCFC030020B6
:101270002DE9F04F85B09846DDE91164DDE90E57A0
:1012800091468A46834603F0FFFF04F14C0017495C
:10129000CDE90210CDE9005743464A46514658462B
:1012A00011F020FB05001BD002F0D2FA10223146CB
:1012B000049011F057F90E4C0499B4E8CD13343171
:1012C000A1E8CD1394E80D10A1E80D1054F82C0DF1
:1012D000086004A802F054FB20684168284688474B
:1012E00006F092FC05B02846BDE8F08F3D110008DD
:1012F00008040020F0B5044680688C4989B051F894
:1013000020506068002800F00A81052806D00628D1
:101310007DD0122800F0B48000F004B9E8690028FC
:1013200008BF002651D0D5E90012AB688DE80F0048
:1013300004F110010FC907F099F9002655F82600AD
:1013400006F0C7F8A169E8690A1A216901446069D1
:10135000304403F051FBA169E8690A1A216901448C
:10136000E069801B03F048FBE169E8690A1A6169DA
:1013700001442069304403F0FBFBE169E8690A1A83
:1013800061690144A069801B03F0F2FB761C022E08
:10139000D4DBA86806F09DF8E069E969D4F814C0C8
:1013A000431A206942186144801C521E03F0FCFC61
:1013B000E169E869A2690B1A61690144101A401CCD
:1013C000921E03F0F1FCEE6911E055F8260006F0DC
:1013D00080F8E069831BA069821B6069811920691C
:1013E000304403F05DFB761C022EEEDB0226D5E9CD
:1013F0000301CDE90001E169606901444B10A16975
:101400008A1B811C2069304403F0ECF900E011E0F4
:10141000D5E90501CDE90001E0696169831E014458
:101420000122A06902EB6101821B2069304403F0B4
:10143000D9F977E0206802F00BFA0490206813F0E5
:101440003FFC50B1A068002818BF00200AD10498C2
:10145000006F002818BF012004E00498406F0028A6
:1014600018BF0220049901EB8000C56E04A802F0A9
:1014700087FA00231A462846216802F0C9FD51E088
:10148000206802F0E5F90490866E002E08BF04A8DB
:1014900042D0A168B0F95C70002908BF012103D0D7
:1014A00003290CBF0221002100EB8101406D0C6C6F
:1014B00006F026F8204606F00CF806A803F0B6FD64
:1014C000BDF81810A88B0144ADF81810BDF81C1019
:1014D000081AADF81C00BDF81A00801CADF81A00FF
:1014E000BDF81E00801EADF81E000498B0F9602003
:1014F000B0F95E1006A805F0CFF804A802F040FA93
:10150000022006F081F8304602F0A2F93A4606A918
:10151000059002F085FE05A802F032FA02E020688C
:1015200012F008FE09B00020F0BD000074E50308C9
:10153000782313F0DFB938B505004FF000040DD063
:1015400003F0A2FE284602F083F90090408EC0F31B
:101550000024684602F014FA06F056FB204638BD17
:10156000034802494160034981607047A7BA0108F6
:10157000FC030020A5B9010838B50C46054603F068
:1015800083FE284602F064F90090064984654166AE
:10159000684602F0F5F9284612F09CFA06F034FB92
:1015A00038BD000038040020782313F0DABD00BFF6
:1015B000FEE72DE9F04107460D46164600F0B0F86B
:1015C000384600F06DF800F02FF800F0D3F810B1B5
:1015D0000220BDE8F081002406E000F03FF8285525
:1015E00000F00AF8601CC4B2B442F6DB00F022F846
:1015F00000F0AEF80020ECE710B580200949088023
:1016000000F012F840200749891E088000F00CF80D
:1016100040200449088000F007F880200149891E15
:10162000088010BD1A04024010B505201CF028FDEA
:1016300010BD000010B5802007490880FFF7F4FFB7
:10164000402005490880FFF7EFFF40200249891C30
:101650000880FFF7E9FF10BD1804024070B50024B0
:10166000002516E06006040E40200C490880FFF7B4
:10167000DBFF0A480838006800F0800008B1601CF1
:10168000C4B240200549891C0880FFF7CDFF681CC3
:10169000C5B2082DE6DB204670BD000018040240EC
:1016A00070B5044600251BE004F0800018B18020CE
:1016B0000D49088003E080200B49891C0880FFF752
:1016C000B3FF402008490880FFF7AEFF40200649DD
:1016D000891C08806006040EFFF7A6FF681CC5B2CF
:1016E000082DE1DB70BD00001804024070B505460E
:1016F0000C4600F015F82846FFF7D2FF00F03AF844
:1017000008B1022070BD2046FFF7CAFF00F032F892
:1017100008B10220F6E700F01BF80020F2E7000015
:1017200010B580200949088040200880FFF77CFF21
:1017300080200649891C0880FFF776FF4020034976
:10174000891C0880FFF770FF10BD000018040240DC
:1017500010B58020064908804020891E0880FFF7C8
:1017600063FF80200249891E0880FFF75DFF10BDDE
:101770001A04024010B580200C490880FFF754FF7E
:1017800040200A490880FFF74FFF084808380068E2
:1017900000F0800008B1012400E00024402003494B
:1017A000891C0880FFF740FF204610BD1804024046
:1017B00070B5234C054682B02068418CB0F84C20AF
:1017C00011444184818CB0F8502011448184284612
:1017D00003F006FC2168498CADF800104618284635
:1017E00007F0A8FA3044401EADF8040003F054FCA2
:1017F0002168898CADF802100844401EADF806003F
:10180000684613F095F830B1284600F077FD12F0E5
:101810008DFE0028F8D10A2D04D0BDF804002168FF
:10182000401C48842068418CB0F84C20891A4184BF
:10183000818CB0F85020891A818402B070BD0000FC
:101840005003002010B500F0FDF800F003F800F0A0
:10185000F3F810BD70B5002600201849088018491B
:101860000880184908601849086018490860184934
:10187000086018490860002400BFFEF7CBFC06464C
:1018800000BF00250BE000201049086000F074F84C
:1018900000F08CF80D4800680444681C85B2002DE7
:1018A000F1D00C480460002008490860084908602D
:1018B00000BF3046FEF7B2FC00BF70BDB80000208C
:1018C000BA000020BC000020C0000020C80000209A
:1018D000CC000020C400002001460846044A1268DB
:1018E000904203D9024A1268801A00E00020704733
:1018F000C400002070B5002500BFFEF78BFC054634
:1019000000BF0648046800BF2846FEF787FC00BFFA
:101910002046FFF7E1FF0646304670BDC8000020B4
:1019200070B50025FFF7E6FF044600BFFEF772FC26
:10193000054600BF00200449086000BF2846FEF7A6
:101940006DFC00BF204670BDC800002070B50025AA
:1019500000BFFEF75FFC054600BF0648046800BFF5
:101960002846FEF75BFC00BF2046FFF7B5FF0646A2
:10197000304670BDCC00002010B509480088401CDE
:10198000074908800748008818B900F085F806491B
:10199000086004480088401C0249088010BD00000F
:1019A000B8000020BA000020BC00002010B50F488D
:1019B0000088401E0D49088008460088A0B900F044
:1019C0006BF80B490860084600680A490968441A20
:1019D00009480068A04201D207480460074800682F
:1019E000A04201D20548046010BD0000BA000020EA
:1019F000C0000020BC000020C8000020CC00002057
:101A000010B5002400BF00BFFEF704FC044600BF71
:101A1000FFF7B2FF00BF102106480AF0E3F800BF4D
:101A2000FFF7C4FF00BF2046FEF7F8FB00BF00BF72
:101A300010BD0000088F002010B5FFF7E1FF10BDBA
:101A400000BFFEE710B500200249086000F00AF868
:101A500010BD0000B400002001490860704700007C
:101A6000B400002010B5FFF754FB04460848006896
:101A700040F080700649086000200649486008462A
:101A8000006840F0010008602046FFF7E5FF10BD48
:101A9000FCED00E0001000E00149486870470000DC
:101AA000001000E010B502492320FFF7ABFA10BD8B
:101AB0007800012010B502492320FFF7A3FA10BDDA
:101AC0006800012010B52DED088B244B1A1F111F43
:101AD0002320FFF7C3FA21480C3890ED010AB8EE35
:101AE000400A10EE101A0846FEF7FAFD41EC190BF9
:101AF0009FED1B0B53EC102BFEF7CCFC41EC180BAD
:101B0000FEF7D5FD15490C394861084690ED020AEB
:101B1000B8EE400A10EE101A0846FEF7E1FD41EC5F
:101B20001B0B9FED110B53EC102BFEF7B3FC41EC9C
:101B3000190B0A490C394869FEF78DFD41EC1A0B67
:101B400053EC192BFEF7FFFB41EC180BFEF7AFFD32
:101B500002490C398861BDEC088B10BD740001206E
:101B6000613255302AA9233F7B14AE47E17AB43F56
:101B7000014609B900207047012901D10020FAE788
:101B8000022901D10020F6E7032901D10548F2E737
:101B9000042901D10020EEE7052901D10020EAE760
:101BA0000020E8E79C66002008B534208DF800008E
:101BB00003208DF8020001208DF8030068460AF02A
:101BC00051F808BD10B50849084800F035FA48B189
:101BD0004FF4C062064907481CF0D3FE024903488F
:101BE00000F058F810BD0000008000185860024056
:101BF000447700201473002010B500F001F810BDE8
:101C0000022001498860704700B0024029B1064AAD
:101C100012680243044B1A6004E0034A12688243CC
:101C2000014B1A607047000000B0024010B508492F
:101C3000084800F001FA48B14FF48072064907489D
:101C40001CF09FFE0249034800F024F810BD00007C
:101C50000088001028640240C47D002034730020F6
:101C60000246094B9A4201D2084801E00648103862
:101C700001F000531BB1064B0B40C36002E0044B64
:101C80000B40836070470000106402400060024017
:101C90007D0F7D0F0246094B9A4201D2084801E0B0
:101CA0000648103801F000531BB1064B0B40C360CF
:101CB00002E0044B0B408360704700001064024058
:101CC000006002407D0F7D0F21B1026842F00102E9
:101CD000026003E0026822F0010202607047000027
:101CE00000B591B0012148050DF030FE344800F0F8
:101CF000E9F83348303000F0E5F800BF304800F034
:101D00008DF90028FAD100BF2D48303000F086F957
:101D10000028F9D14FF0206002902A4803902A4809
:101D20000490002005904FF4C060069000200790BA
:101D30004FF480600890002009900A904FF4807062
:101D40000B9000200C900D9003200E9000200F901F
:101D5000109002A91A48303000F0BEF919480390DB
:101D60001A480490402005900001069000200B9036
:101D700002A9134800F0B0F90122102110483030B8
:101D800000F08CF901210E483030FFF79DFF0E2046
:101D90008DF8040001208DF805008DF806008DF8FF
:101DA000070001A809F05EFF00208DF805000C2057
:101DB0008DF8040001A809F055FF11B000BD000026
:101DC00028600240047800404477002044730020DB
:101DD00000B591B0012188050DF0B8FD354800F03F
:101DE00071F83448783800F06DF800BF314800F0E1
:101DF00015F90028FAD100BF2E48783800F00EF906
:101E00000028F9D14FF0206002902B4803902B4816
:101E10000490002005904FF48070069000200790F9
:101E20004FF480600890002009900A904FF4807071
:101E30000B9000200C900D9003200E9000200F902E
:101E4000109002A91B48783800F046F91A48039010
:101E50001B480490402005908020069000200B90A5
:101E600002A9144800F038F90122102111487838ED
:101E700000F014F901210F487838FFF725FF3920C9
:101E80008DF8040001208DF8050002208DF8060071
:101E900001208DF8070001A809F0E4FE01208DF86B
:101EA000050045208DF8040001A809F0DBFE11B003
:101EB00000BD0000A064024004140140C47D002065
:101EC000447D0020016821F00101016000210160D2
:101ED00041608160C1600161212141614A498842BC
:101EE00004D13D21484A103A91608CE046491831AE
:101EF000884205D14FF47461434A103A916082E000
:101F000041493031884205D14FF474113E4A103AAC
:101F1000916078E03C494831884205D14FF07461C6
:101F2000394A103A91606EE037496031884204D1F5
:101F30003649354A103AD16065E0334978318842F4
:101F400004D13349304A103AD1605CE02E499031D7
:101F5000884204D12F492C4A103AD16053E02A49D3
:101F6000A831884205D14FF03D51274A103AD1603F
:101F700049E02949884204D13D21274A083A1160A5
:101F800041E025491831884205D14FF47461224A55
:101F9000083A116037E020493031884205D14FF4CA
:101FA00074111D4A083A11602DE01B4948318842DE
:101FB00005D14FF07461184A083A116023E01649C0
:101FC0006031884204D11149134A121F11601AE08E
:101FD00011497831884204D10D490F4A121F11600E
:101FE00011E00D499031884204D10A490A4A121F72
:101FF000116008E00849A831884204D14FF03D51F2
:10200000054A121F11607047106002403D00002019
:10201000400F002000003D201064024001460020D7
:102020000A6802F001020AB1012000E000207047B6
:102030000146486880B2704770B50246002000240F
:102040000025124EB24201D2114B01E00F4B103B62
:10205000104E0E4036B11E2606EAD124166806EA56
:10206000040502E0566906F0800501F000560EB145
:102070005C6800E01C68084E344004EA010616B1B2
:102080000DB1012000E0002070BD0000106402408E
:10209000006002403C0F3C0F7D0F7D0F10B501F03A
:1020A00080034BB122B1436943F08003436103E0F5
:1020B000436923F08003436180290BD02AB1036870
:1020C00001F01E042343036004E0036801F01E04D2
:1020D000A343036010BD000010B500220268134B3B
:1020E0001A40CC680B6823434C6923438C69234313
:1020F000CC6923430C6A23434C6A23438C6A2343F1
:102100004C6B23438C6B23431A430260426922F0D9
:102110000702D1E90B3423431A4342610B69436040
:102120004B6883608B68C36010BD00003F801CF06B
:10213000416070477047000010B502460020002340
:10214000102A03D14FF02044636E0FE0B2F5807F78
:1021500002D10A4C236809E0B2F5805F03D1074C35
:102160002034236802E0054CD434236803EA0104D8
:102170008C4201D0002000E0012010BD840000A0AE
:102180000021D0E900231A4383685B1E42EA431210
:10219000C36842EA4321014A11607047500100A020
:1021A00070B500220021002300240568AD00A5F1D0
:1021B000C045D5F840216FF30E02D0E901563543F2
:1021C000C6683543066935434669354386693543F4
:1021D000C6693543066A3543466A35432A4305686E
:1021E00035B90568AD00A5F1C045C5F8402111E03D
:1021F0003B4D2B686FF30E03D0E907563543466A13
:1022000035432B43364D2B600568AD00A5F1C04525
:10221000C5F84021056875BB314D0835066855F88D
:10222000261001F07041856A2D686D1E866A7668F9
:10223000761E45EA0616856AAD686D1E46EA0526D5
:10224000856AED686D1E46EA0536856A2D8A6D1E23
:1022500046EA0546856AAD8A6D1E46EA0556856AD8
:102260002D7E6D1E46EA056529431D4D083506681D
:1022700045F8261032E0FFE7194D0835066855F895
:10228000261001F07041856A2D686D1E866A766899
:10229000761E45EA0616856AAD686D1E46EA052675
:1022A000856A2D8A6D1E46EA054529430C4D083581
:1022B0002C6804F07044856AED686D1E2E03856AF3
:1022C000AD8A6D1E46EA05552C434FF02045C5F8F2
:1022D0004841034D0835066845F8261070BD0000DA
:1022E000400100A00449096841EA40014FF0204242
:1022F000C2F8541170470000540100A070B5154C8D
:1023000005460A2813D00D2D08BF70BD02F0BCFF92
:102310002068C0690168284688470F48016800297D
:102320001CBF28468847BDE8704005F06DBC02F030
:10233000ABFF02F0A9FF2068C069457E05F064FC90
:102340002068818C29448184018C4184BDE87040DF
:1023500005F05ABC500300207C0300202DE9F04317
:102360000446C56887B017468846002005F0BCF8CB
:102370000646002D1BBF2879002826F0020046F0F3
:10238000020005F0B1F82069012568B1D4E9021214
:102390000091CDE901250395D0F800C0638822881B
:1023A00039464046E04719E0DFF84C90134B214690
:1023B000D9F800001B68427CE0689847A0B1A1886A
:1023C000E388A2680095CDE90231CDE904200195AA
:1023D000638822883946404607F004FF07B030463C
:1023E000BDE8F04305F080B8E088012812BF002066
:1023F000D9F80000806BE2E750030020480300207A
:102400002DE9FF4F83B0074643F6FF74C4F1000087
:1024100090460E1E0090C4BFB91C32460DDD00BFB1
:10242000B1F90000A042D8BF0446009B9842D8BF33
:102430001846091D0090521EF2D18C490868406967
:1024400078B1B0F90630069A9B1A009A9342C0F20E
:10245000018100BFB0F90230069A9A1AA24200F335
:10246000FF8000988442D2BFA6F1010907B0BDE801
:10247000F08F00207E490546002E0860C4BF0698F4
:1024800004EB000A7EDD4D45B4BF05F1010C4FF0B1
:10249000000C07EB850207EB8C01B2F90200B1F9E1
:1024A0000230A04253D1A34213D137F92C2037F97F
:1024B000250002EB08036D4A4044514612689842D9
:1024C000526ED2F800C0B2BF1A4602461846E04724
:1024D00083E000222946B9F1000F0CDD002914BF6A
:1024E000491E711E07EB8100B0F90200A04203D122
:1024F000521C4A45F2DB2046A0426ED0001B37F941
:1025000025101A1B90EA020F09D4584A01EB080063
:1025100051461268526E1368024698475DE0DFF834
:1025200050B1DBF800C0BCF10C0F56DA5FEA0C00CA
:1025300018BF504A4AD000BF02EB400333F9023CB7
:102540008B4243DB22F81030401EF5D13EE0A3421F
:1025500043D0A8BF844203DAA042A8BF9C423CDB20
:1025600098424DDC8446A042DFBF18468442B2F94F
:102570000030B1F9001030DCCA1AA4EB0C01514351
:10258000002900E02DE0A0EB0C02CEBF01EB6201C0
:10259000A1EB6201491CA0EB0C0091FBF0F0DFF80D
:1025A000D0B0C118DBF800C0BCF10C0F15DA5FEA3F
:1025B0000C0018BF2F4A09D002EB400333F9023C4C
:1025C0008B4203DB22F81030401EF5D1294A22F855
:1025D00010100CF10100CBF800006D1CB542FFF6A5
:1025E00052AF069822492044019008684FF0000B32
:1025F0005D460028C4BF1F48B0F900A022DD19E0E5
:102600009C46A342DEBF8442B1F90030B2F900100B
:10261000B2DDE2E71748BBF1000F30F915A009D091
:1026200008EB0100114908EB0A020968496E0B68C2
:10263000019998470E486D1C8BF0010B00685146BC
:10264000A842E7DC0098641C84427FF712AF07B011
:10265000BDE8F08FB0F90630069A9A1A0092F9E6B2
:10266000B0F902200698141AFBE60000500300207F
:10267000940300200802012010B5002004F01EFF82
:102680006FF07F4004F025FF012004F09FFF002041
:1026900004F0AAFF002004F0B7FF002004F024FF9C
:1026A0000448006804F02CFFBDE81040002004F04E
:1026B0005FBF00004C030020F0B50A460021002354
:1026C000002400BF3DE0012505FA01F3156805EA85
:1026D00003049C4234D105684F000326BE40B54335
:1026E000056015794E00B5400668354305601579DB
:1026F000012D02D01579022D16D185684F000326D1
:10270000BE40B543856055794E00B5408668354377
:102710008560456801268E40B543456045689679D9
:102720008E40B6B235434560C5684F000326BE40B3
:10273000B543C560D5794E00B540C6683543C56020
:10274000491C1029BFD3F0BDF0B5002300244D076C
:10275000ED0E02FA05F3CE1000F1200555F82650D3
:102760004E07F70E0F26BE40B543CF1000F12006EE
:1027700046F82750CE1000F1200555F8265045EABE
:102780000304CE1000F1200545F82640F0BD0246B6
:10279000002013690B400BB1012000E000207047BE
:1027A00041837047018370470AB1018300E0418390
:1027B000704700003EB501208DF808000024002578
:1027C000012180200DF0C2F801208DF804000020C6
:1027D0008DF806008DF8070001208DF805004020D7
:1027E000009069463248FFF767FF01208DF8060028
:1027F00000208DF8070001208DF805008020009052
:1028000069462B48FFF758FF40212948FFF7C8FFCA
:1028100080212748FFF7C4FF01201BF028FC40213E
:102820002348FFF7BFFF80212148FFF7B9FF0A20A7
:102830001BF01DFC80211E48FFF7B2FF0A201BF091
:1028400016FC80211A48FFF7ADFF012180200DF012
:102850007DF800208DF8040001208DF8060000208E
:102860008DF8070001208DF8050080200090694652
:102870000F48FFF721FF03208DF80800012302AA6B
:1028800048F24D01BA2000F0CBF800208DF8080086
:10289000012202A948F24D0000F090F814201BF02C
:1028A000E6FB002003494871012008713EBD00008D
:1028B000001C0240EC8E00203EB5002000903648FF
:1028C000007900B93EBD00F06DF800B9FAE70122C9
:1028D00001A948F24E1000F071F89DF8040000F0D4
:1028E0000F0098B92D480078012807D100202B4906
:1028F00008702B490872084603F016FF01236A4648
:1029000048F24E11BA2000F08BF8DBE706220DF1F9
:10291000050148F24F1000F051F801236A4648F2D1
:102920004E11BA2000F07CF89DF806009DF80710C3
:1029300000EB0120184908819DF808009DF8091056
:1029400000EB012014494881084605894489B5F502
:10295000F07F01DD4FF4F07540F25630844200DD27
:1029600004460E48007860B901200C4908700C48F4
:102970000560446001200A490872084603F0D4FE4D
:1029800008E00748056044600120054908720846D0
:1029900003F0CAFE00BF95E7EC8E00208C000020FB
:1029A000FC8E00200448006800F0800008B9012077
:1029B00070470020FCE70000101C02402DE9F041A8
:1029C00005460E4617461BF049FEBA201BF016FEC0
:1029D0001BF08CFE28121BF011FE1BF087FEE8B2E4
:1029E0001BF00CFE1BF082FE1BF038FEBB201BF020
:1029F00005FE1BF07BFE002406E01BF0D3FD3055E6
:102A00001BF07CFD601CC4B2781EA042F5DC1BF0FC
:102A1000C9FD30551BF0A0FD1BF044FEBDE8F08160
:102A20002DE9F04180460D4616461F461BF016FE66
:102A300040461BF0E3FD1BF059FE10B10120BDE83C
:102A4000F08128121BF0DAFD1BF050FE08B10120C6
:102A5000F5E7E8B21BF0D2FD1BF048FE08B10120FB
:102A6000EDE7002409E0305D1BF0C8FD1BF03EFEE1
:102A700008B10120E3E7601CC4B2BC42F3DB1BF0E9
:102A800011FE0020DBE70000014AC2E900017047A7
:102A9000FC020020014AC2E9000170470403002043
:102AA000014AC2E900017047D0030020014AC2E98F
:102AB000000170470C030020014AC2E90001704781
:102AC000D80300202DE9F04F4B4989B00968B1F9CE
:102AD00022200692D1F81CC0B1F92470DCF81C4009
:102AE000A28982429CBFE389984205D8A0EB0209E3
:102AF0004FF0FF38266812E0D4E90162002A71D055
:102B0000138883429CBF5588A8426BD8C01A52686C
:102B100080B202EB8000B0F90090B0F90280B9F108
:102B2000FF3F5FD09CF81800A27C10FB02FB94F8DA
:102B300010A00790B1F92A50284608F0C7FAC0B291
:102B400008902D4809FB0B620068A37C4FF0010937
:102B5000816BCDE90293CDE90421C0695246C17E63
:102B6000807ECDE90001DDE90603394607F03AFB36
:102B7000B8F1FF3F18D045F0020008F0A7FA1E4850
:102B8000A37C08FB0B620068816BCDE90293CDE961
:102B90000421C0695246C17E807ECDE90001DDE995
:102BA0000603394607F01EFB134E3068C069417EAC
:102BB000007E814213D9022D11D085F0040008F067
:102BC00085FA3068C069017EC27E11FB0271427EC7
:102BD000D319827E06981AFB020207F0DDFC0898E2
:102BE00008F074FA0448627C0068418C1144418406
:102BF00009B0BDE8F08F0000500300200448002910
:102C00000068C069C0691CBF027C0A60407C7047D4
:102C100050030020022008807047C06982898A42E0
:102C20009CBFC289914210D9806880B102888A42D3
:102C30009CBF438899420AD8406800EB8100A0EB12
:102C40008200B0F90000002801DB0120704700205D
:102C5000704700002DE9F041284C054686B02068F9
:102C60002946B0F92A70C069C06900F0B2F900289D
:102C700004BF06B0BDE8F08141680088281A01EB66
:102C8000C0053846AE7808F021FA07461C48D0F84F
:102C90000080B8F1000F17D0686800210422CDE948
:102CA0000401012003960090CDE90102D4F800C090
:102CB0002A78DCF81C00BCF92410037EBCF9220041
:102CC000D8F800C0E0470EE06868CDE90060D4F8AD
:102CD00000C02A78DCF81C00BCF92410037EBCF983
:102CE000220000F0C5FB384608F0F0F920686A7849
:102CF000418C1144418406B0BDE8F08150030020AE
:102D00008C03002070B505460B480C462946006828
:102D1000C069C06900F05DF9002808BF70BD416856
:102D200000882A1A012000EBC200002C085C1CBF9E
:102D300011F83210216070BD50030020112008806E
:102D4000704710B5C06900F044F9002818BF012091
:102D500010BD00002DE9F043394D024687B02868C8
:102D6000B0F92A60C069C1691046002904BF07B0E4
:102D7000BDE8F0830B8883429CBF4B88984205D9FD
:102D800089680029F6D107B0BDE8F083002904BFA7
:102D900007B0BDE8F08348680988511A00EBC10408
:102DA0003046A77808F092F98046286862680123C7
:102DB000816BCDE90237CDE90421C169CB7E8A7EE2
:102DC000CDE900230B7EB0F924102278B0F922005F
:102DD00007F008FA2868C069417E027E91421FD937
:102DE000C07E11FB00F912FB00F7022E18D002F092
:102DF00022F9064602F0E8F804F06BFB2968227815
:102E0000CB69B1F92200DB7E12FB0302B1F9241079
:102E100001EB0903394407F0BFFB304604F059FBCE
:102E2000404608F053F928686278C369B0F9221067
:102E30009B7E12FB0311418407B0BDE8F0830000C4
:102E4000500300202DE9F341354C82B00025206865
:102E5000C069427EC07E12FB00F84F1E24D402A837
:102E600004F096FD064620683146C069C06900F04E
:102E70005DF890B141680088301A00EB400001EB2A
:102E8000800090F90210007908442168C969897EA0
:102E900010FB01F00028C8BF05447F1EDFD51EB11E
:102EA000304605F047FF054420686A1E418CADF8A6
:102EB0000010808C1144ADF80410ADF80200A8F1A8
:102EC00001010844ADF806001648006800281FBF3D
:102ED000816800296846884702F0ADF805462068F9
:102EE00090F82A0010F0040F02D002F0A4F801E0DC
:102EF00002F06AF804F0EDFABDF90630BDF90420DD
:102F0000BDF90210BDF9000007F046FB284604F0A9
:102F1000E0FA05490120087004B0BDE8F081000026
:102F2000500300208C03002048050020002808BF23
:102F3000704702888A4203D842888A4228BF704775
:102F400080680028F5D1704710B404461548006821
:102F5000D0F81CC02046DCF81C2002B31388834242
:102F60009CBF5388984203D99268002AF6D116E094
:102F7000AAB110885368221A012000EBC2009CF805
:102F80001AC0185C10FB0CF0002904BF10BC70477D
:102F900013F8322012FB0CF20A6010BC704710BC10
:102FA0000020704750030020012008807047C0694E
:102FB00068B102888A429CBF4288914203D98068E6
:102FC0000028F6D103E000281CBF01207047002034
:102FD0007047002808BF704702888A4203D8428899
:102FE0008A4228BF704780680028F5D170470000EA
:102FF0002DE9F047DFF8A480DFF8A4A04FF0000926
:10300000D8F80840002CC4BF0025D8F810601DDD9A
:10301000D8F81000C5EB051700EBC7007022001DA3
:10302000DAF80010FDF74DF946F8789BD8F8100053
:1030300005F1010500EBC70000F10C018161011DE4
:103040000A1DC0E90F124164641EE1D1D8F80800DE
:103050000024002810DD00BF04F0FAFDD8F810208D
:10306000C4EB041152F83110814206D081B1D8F876
:103070000800641C8442EFDB4C46D8F81010C4EB07
:10308000041001EBC000001DCAF80000BDE8F08785
:10309000C4EB041142F83100EFE700007C0500208A
:1030A0005003002070B51A4918480860084605F01A
:1030B000F9FF184CA068C0EB0010C500284600F0CE
:1030C00035FB2A460021206106F08AF84FF0FF30D8
:1030D000206004F0DBFDA06800250028D8BF70BD8B
:1030E00004F0B6FD2169C5EB051251F8321081429A
:1030F00008BF70BD21B16D1CA0688542F0DB70BDBA
:103100002269C5EB051142F8310070BD81B9010893
:10311000900500207C05002010B516F0C9FD04487C
:10312000016A04480068416600F10801416110BD70
:10313000F0040020500300202DE9FF4F8BB005461E
:1031400018980C464000511B1F469046091A44BF70
:103150000FB0BDE8F08F391B081A44BF0FB0BDE8AF
:10316000F08F02F091F8794E00200490306890F8CA
:10317000691029B990F868100491042180F868104A
:1031800011F072FB28440B9011F07CFB051911F033
:103190006BFB00EB080411F075FB3268C11992F863
:1031A000690050B992F868000B9B454343430B9369
:1031B000189B4443414358431890681E0C9092F862
:1031C0006800621E02440844CDE90D200B9800F00F
:1031D000BFF8ADF818000D9800F0BAF8ADF81C0073
:1031E0000C9800F0B5F8ADF81A000E9800F0B0F8A1
:1031F000ADF81E0006A811F09BFB00287ED01898A1
:1032000040430390189800EBD0700290DDE90C74F5
:103210000B9D21462846DDF83880189E00F01CF9E9
:10322000DDE90201059501EB6009CDE90048474859
:10323000BA460068406938B1B0F9061041457FDBF5
:10324000B0F90210B9427EDC0025341E25DD00985D
:103250000AEB060B801B099005983044CDF820003E
:10326000ABEB0501B942A8BF884513DB05FB05F0B0
:1032700004FB04024A4504DD641E04FB04024A45C3
:10328000FADC324B09981B68021908985B6E001B28
:103290001B6898476D1CB542E2DB0AEB0600441C34
:1032A0000198A0EB060A5445B8BF284D09DA2868F2
:1032B0002146009A406E036805989847641C54455F
:1032C000F5DB0024351E24DD0098801B0090059856
:1032D00000EB060B0AEB0401B942A8BF884515DBD9
:1032E00004FB04F005FB05024A4504DD6D1E05FBE9
:1032F00005024A45FADC0098421900E010E0134B41
:10330000ABEB05001B685B6E1B689847641CB442FE
:10331000E0DBFFF701FF11F009F900287FF476AF39
:103320000A48006890F86910002904BF049980F8E1
:10333000681004F069FC0FB0BDE8F08F00E002E017
:10334000B0F906807CE7B0F902707DE750030020F9
:103350000449096891F86810002918BF90FBF1F042
:1033600000B27047500300202DE9F041304C054673
:103370000E462068002798B92E480068E06110B911
:1033800007F03AFAE06100F0D1F92060002808BFA8
:10339000012705D0294928480860084605F082FE23
:1033A0002748006885423FDBE069711B421E91425D
:1033B000C4BF2844461EAE42BCBF2E460127DFF8DC
:1033C0008480D8F80000416E4A68A26321621F49D8
:1033D0001D4A0A6041662068E660C4E90105711B68
:1033E0004A1C002105F0FCFE1948810CC4E90401C7
:1033F000A061D8F80000018990F8682011FB02F361
:1034000014490B80438913FB02F34B8083895B1CB7
:1034100053435B1E8B80C3895B1C5A43521ECA8078
:1034200041613846BDE8F08105480568BCE7000009
:10343000F00400208003002031B9010814050020A9
:103440008403002050030020818F01082405002000
:1034500001C0FFFF1C050020044A126892F8682092
:1034600090FBF2F091FBF2F1FFF77EBF50030020DA
:103470002DE9F04FDFF8B8C08BB0DCF800C0DDE913
:10348000145B9CF8104014F0020F2A4C07D0CDE9D1
:10349000005BD4F800C0E0470BB0BDE8F08FCDE989
:1034A0000210DCF8380017461E46D0F800A0DCF801
:1034B0003C00D0F800901F484068484503D11D48A3
:1034C0008068504520D0504607F0CEFA019048461B
:1034D00007F0CAFADFF86080009001980124C8F86C
:1034E0000000DDE90001E2B206F0DAFC48F8240051
:1034F000641C0F2CF5DB0098C8F83C000F4807F05F
:1035000089FA0C48C0E9019A0D480C4907804680A9
:103510008580C0F808B00B480078087101F10C00F4
:10352000DDE902210BB0BDE8F04FFEF717BF000048
:1035300050030020CC0200208C000120DC0200207F
:10354000E802002048050020002904BF0020704741
:10355000F8B50C46054601F097FE204600F015F838
:1035600006000ED000F074F9224600901DB12946E5
:10357000FCF7A7FE02E0002105F032FE684600F0ED
:10358000FFF904F041FB3046F8BD002808BF704742
:1035900010B5044601F078FE204611F0D7FE04462F
:1035A00004F032FB204610BD38B5054601F06CFE34
:1035B0002846FFF7EAFF040009D000F049F92A463F
:1035C0000021009005F00CFE684600F0D9F904F0E7
:1035D0001BFB204638BD0000024A106021F00300AA
:1035E000506070478C010120002808BF704770B5FB
:1035F000054601F049FE0F4C606B10F835100029AC
:1036000018BF022911D2042101EBC506815948686F
:1036100011F03EFE6068401C6060616B606A88511A
:10362000616B002001F835006562BDE8704004F070
:10363000EBBA0000CC000120002808BF7047044A04
:10364000D16B0160002918BF4860D063704700004B
:10365000CC0001202DE9F041064601F015FE356849
:103660000027F5B101F010FE104C606B10F835101A
:10367000002918BF022912D2042101EBC50850F815
:103680000810486811F004FE6068401C6060616BBF
:10369000606A41F80800606B00F83570656204F0FC
:1036A000B3FA3760BDE8F04104F0AEBACC000120B7
:1036B0002DE9F05FB1F1000881464FF00005C6BF6B
:1036C000194F4FF0000ABDE8F09F00BF09EB8506D7
:1036D00001F0DAFD3468ECB101F0D6FD786B10F83A
:1036E0003410002918BF022912D2042101EBC40BA7
:1036F00050F80B10486811F0CBFD7868401C7860DA
:10370000796B786A41F80B00786B00F834A07C6222
:1037100004F07AFAC6F800A004F076FA6D1C45456C
:10372000D4DBBDE8F09F0000CC0001202DE9F04182
:10373000044617F09BFAE01C274E20F00300051DFD
:10374000306CA84288BF0546F46BBCB154F8041C29
:10375000A94210D19CB1206800281CBF616841605B
:10376000606800281CBF21680160F16BA14204BFA2
:103770002068F0632DE02468002CE7D10024F16874
:10378000B06B00EB010858F8040CA8EB0007386890
:1037900040B1002018F0D2FB58F8040CA8EB000749
:1037A0003868B0B97868A84213DB3844401B041D60
:1037B000384618F095FBF068401BF06070692844AB
:1037C00070617868401B1CBF394611F061FD44F8F8
:1037D000045C2046BDE8F081CC00012010B5002437
:1037E00017F044FA0D490F2001EBC002526C8AB168
:1037F00001EBC000406C806848B14168A14288BFBD
:103800000C46806800281CBF80680028F5D1A4F110
:103810000C0010BD401EE7D5F9E70000CC000120E8
:10382000002140B10549042202EBC000496B085851
:103830004068A0F10C01084670470000CC00012050
:1038400002488169491C816170470000CC00012059
:103850000949CA69521CCA614A6B02EBC00213785B
:103860005B1C1370002808BF7047496B042202EBF1
:10387000C000085808307047CC00012070B50646DB
:1038800082B00C460846FFF780FE050018BF002EE8
:103890001FD03046FFF7C4FFA042B8BF044601F076
:1038A000F3FC2846FFF7D4FF00903046FFF7D0FF27
:1038B0000146019022460098FCF703FD684600F09F
:1038C0005FF801A800F05CF83046FFF78DFE04F0C9
:1038D0009BF902B0284670BD10B501F0D5FC00245C
:1038E00017F0C4F9194B1A490F2000BF01EBC002B1
:1038F000526CE2B101EBC000406C8068C8B1426814
:10390000A24288BF1446806800281CBF8068002837
:10391000F5D1A4F10C00B0F5800F0DD983FB002088
:103920004211096AA2EBE07000FB01F409E0401EBD
:10393000DCD5A4F10C00F1E7096A4843A3FB0010B1
:10394000440904F061F9204610BD00001F85EB51C9
:10395000CC0001200549102898BF102004D94A68DE
:10396000B0EB520F28BF5008886070478C010120CF
:1039700002488169491E816170470000CC00012026
:103980000A4902684B6B52F8082C03EBC202137809
:10399000022B04D3CB69002B1CBF5B1ECB611178BB
:1039A000491E11700021016008467047CC000120BB
:1039B000002808BF70470449042202EBC000496B8D
:1039C0000858083070470000CC0001202DE9F04174
:1039D0004FF0000682B00B465FEA000834462BD059
:1039E00032B111461846FFF7AFFD060008BF0124AB
:1039F0004046FFF72DFF0090078845686846FFF7AF
:103A0000BFFFCCB9B800011D2846FFF737FF0500FE
:103A100016D0FFF71DFF019040F8276001A8FFF7BF
:103A2000AFFF4046FFF714FF009045600188491C36
:103A300001806846FFF7A4FF02B02046BDE8F08190
:103A40003046FFF7D1FD0124F6E70820FFF7ACBDB3
:103A5000002808BF704730B583B00546FFF7F8FE71
:103A600000904068D8B1FFF7F3FE01900098002461
:103A70000088002809DD019800EB8400FFF7EAFDCB
:103A80000098641C0088A042F5DC01A8FFF778FFCD
:103A90000098001DFFF7DEFD0099002008806846B1
:103AA000FFF76EFF2846FFF79FFD03B030BD38B526
:103AB000002430B1FFF7CCFE009004886846FFF781
:103AC0005FFF204638BD30B583B00D460024B8B145
:103AD000FFF7BEFE00900188A9420ED9406860B190
:103AE000FFF7B6FE019050F8255001A8FFF748FFF8
:103AF000280002D0FFF7ACFE04466846FFF740FFFF
:103B000003B0204630BD70B50C46054601F008FCF8
:103B1000C1B223462846BDE870400022AFF30080C2
:103B20002DE9F0012D24D3F800C0B0F1004F34D0BE
:103B300000250028A8BF4FF0000C07DA0CF10106A1
:103B40001E608CF8004040424FF0010CA1EB0C01CC
:103B5000C9B2002A1CBF491EC9B200291CBF234F8D
:103B6000234E3DD08C46491EC9B2944508D1D3F8A6
:103B700000C03C780CF10108C3F800808CF80040CC
:103B800056F8214090FBF4FC0CF0FF0CBCF10A0F3E
:103B900026D80CFB140081B909E00CF101060125BF
:103BA0001E606FF000408CF80040491ED0E7002DE9
:103BB0001CBF0CF1010C0CF0FF0CBCF10A0F03D17F
:103BC000491C4FF0010CC9B20CF13004D3F800C00D
:103BD00000290CF10108C3F800808CF80040C1D125
:103BE000196800200870BDE8F00170474403002008
:103BF0006CB5030870B514460D46064601F044FB4B
:103C0000204601F025FA0300164804EB840109D090
:103C100050F8210041688068711A2A1A184603F08A
:103C200097FC1AE000EB8104A268B24214BF0122A3
:103C30000022E368AB4214BF012300231A430CD0D7
:103C4000236943B150F82100816840686A1A311A2B
:103C5000184603F00FF8C4E90265BDE8704003F0B0
:103C6000D3BF000020030120C2B2CBB2D21A48BF9A
:103C7000524292B202FB02F3C0F30722C1F3072CB7
:103C8000B2EB0C0248BF524292B2000CA0EB1140C2
:103C900002FB023200B20028BCBF404200B280B238
:103CA00000FB0020704700002DE9F041002182B0A8
:103CB000084601F055FA43F6FF76374601F0E4FA7C
:103CC000042007F003FA80461248C068C16C006DFA
:103CD0008D1B841B0E440744ADF80050ADF8046002
:103CE000ADF80240ADF80670684610F021FE48B10C
:103CF0003B4632462146284606F04EFC10F016FCA4
:103D00000028F5D1404607F0E1F903F07DFF02B04D
:103D1000BDE8F081440300202DE9F04182B01C464B
:103D200017460D46064601F0AFFA042007F0CEF91B
:103D300080461348C168C86C096D064407440D44A9
:103D40000C44ADF80060ADF80470ADF80250ADF869
:103D50000640684610F0ECFD48B123463A46294635
:103D6000304606F019FC10F0E1FB0028F5D1404682
:103D700007F0ACF903F048FF02B0BDE8F0810000A5
:103D800044030020022BA4BF002070472DE9F0411E
:103D900006461C4615460F461C20FFF7C7FC0028A8
:103DA00008BFBDE8F081002F18BF07610BD10A4A98
:103DB00052F8241039B10A681AB111461268002A63
:103DC000FBD1096901618461858200210160416044
:103DD000C0E90216BDE8F081680300202DE9F0413A
:103DE00000241D46074688461646022B27DA1C206B
:103DF000FFF79CFC18B3B8F1000F18BFC0F8108093
:103E00000BD1104A52F8251039B10A681AB111467F
:103E10001268002AFBD1096901618561868204600C
:103E20004460C0E90247040009D000F011F8E068DE
:103E3000006820B90448006800EB850084652046CE
:103E4000BDE8F0816803002050030020FFF7F4BBB9
:103E500000281CBF8269022AA4BF0120704710B449
:103E6000244C54F82210002908BF44F822003AD00C
:103E70004B682BB119465B68002BFBD1002935D06C
:103E8000C3681B68D1F80CC0DCF800C09C4503DD9A
:103E900009680029F6D129E041B3D1F80CC0DCF85B
:103EA00000C09C4504BFB0F814C0BCF1010F0DD197
:103EB000D1F800C0BCF1000F07D06146DCF80CC09F
:103EC000DCF800C09C45F3DA00E079B14B68002BC8
:103ED0001DBF18604A68426044F82200486088426A
:103EE00008BF0021016010BC0020704710BC0120F9
:103EF0007047000068030020002808BF704730B4F6
:103F0000214C00BFD0F800C000281CBF8569022DDD
:103F100035DA54F82510002908BF44F825002ED0C2
:103F20004A6822B111465268002AFBD139B3C268EF
:103F30001368CA6812689A4203DD09680029F8D13B
:103F40001DE0E1B1CA6812689A4204BF828A012A60
:103F500008D10A682AB11146D26812689A42F8DA82
:103F600000E061B14A68002A1DBF10604A684260E3
:103F700044F825004860884208BF002101605FEADC
:103F80000C00BFD130BC7047680300200B4A816928
:103F900052F82130834204BF036842F8213041685F
:103FA00000291CBF02680A60016800291CBF426822
:103FB0004A600021016041607047000068030020F2
:103FC0000020704702280BDA064A52F8200038B168
:103FD000C26812688A4208BF704700680028F7D19B
:103FE00000207047680300200228A4BF002070470B
:103FF000064951F82000002808BF7047C1680968C9
:1040000000291CBF00680028F8D170476803002011
:10401000002808BF70472DE9F8431E46174688461A
:104020000446FFF715FC0090006805686846FFF736
:10403000A7FC33463A4641462046A847BDE8F883E8
:104040002DE9F041044603F00BFE0619164F1DE062
:1040500000F0B8FDB8F1050FC8BF4FF0050801F03A
:1040600013F93C68FFF7ECFB250018D003F0CCFDFA
:104070006D1EFBD1404603F0DDFD1CB101F004F9DB
:10408000641EFBD1FFF774FC03F0BEFD03F0E8FDF6
:10409000A6EB0008B8F1000FDADCBDE8F08140467D
:1040A00003F0C8FDEEE700008805002070B5144657
:1040B0000D46064601F0E8F80549304609684D848A
:1040C0008C84FDF775FBBDE8704003F09DBD0000DA
:1040D0005003002000B585B003A9CDF80CD0FFF740
:1040E00012FD684600F002F805B000BD002808BFC8
:1040F00070472DE9F04F83B0054601F0C5F800F098
:10410000BDFF3C4C80462068B0F9227000F0FAFFF9
:1041100082462068818CA1EB0A01818428780028DE
:1041200018BFA8F1010946D047F6FF71284604F0F0
:10413000DFFD83460146284604F0A0FD21680646BF
:1041400091F82C0000F00300012808BF304605D08C
:10415000022812BF002006EBD67040104A8C101ABD
:104160004884ADF80000721E1044ADF80400888C3D
:10417000ADF802004844ADF806006A4659462846A4
:1041800003F0D6FF2168BDF802008884594628460E
:1041900003F014FC054428780A2818BF0D2817D00E
:1041A000BDF80000216830444884287818B115F81B
:1041B000010F0028B8D12068818C51448184818D01
:1041C00021F00301818503F01FFD03B0BDE8F08FEE
:1041D000206890F82C1001F0030101291DBF02296D
:1041E000018C4184478429780A29DED1818C41449D
:1041F0008184DAE75003002070B514460D46064668
:1042000001F042F80548016830464D848C84FFF780
:104210006DFFBDE8704003F0F7BC000050030020C4
:104220002DE9F04182B006000D46174647F6FF78AB
:104230004FF0000404BF02B0BDE8F08101F024F8A3
:1042400065B128460FF0FCFF040007D0024629465E
:10425000684604F0A8FD68460FF0F2FF43463A4670
:104260002946304604F032F820460FF0E9FF03F00B
:10427000CBFC02B0BDE8F081002808BF70472DE9F3
:10428000FF4F87B093460E46054600F0FDFF3468A9
:10429000776821B238B2401A401C029000F0EEFE5E
:1042A00082461BF00C0F2FD0029801900A98A84666
:1042B0004FF00009009000F0E7FFDDE900214046E3
:1042C00004F038FF8044002818BF09F10109F4D137
:1042D00003F09AFC0BF00C00042818BF082802D049
:1042E0000C2805D010E0381409FB1A00401C09E026
:1042F0002014C0EB274109FB1A11491C01EBD171B5
:1043000000EB610060F31F4430460FF099FF5FEA55
:10431000000909D0CDE904470246314604A804F05B
:1043200042FD04A80FF08CFFAAF1010828460A9A62
:10433000029904F041FF039008EB244060F31F470B
:10434000CDE900472846039904F098FC1BF00301CF
:1043500008BF30880DD001290ED0022911D1B6F93D
:104360000420B6F90010521A101A00EBD07001EBBD
:104370006000ADF8000004E0B188081A401CADF8F8
:1043800000006A462846039903F0D2FE28460A9A9E
:10439000029904F0CFFE05440AEB244060F31F4469
:1043A00028780028C2D148460FF04AFF03F02CFCC1
:1043B0000BB0BDE8F08F00002DE9FF4F87B00C4631
:1043C000DDE9148B054600F05FFF52480268D06CAF
:1043D00000EB050A106D00EB0409002010F0A8FAAC
:1043E00000287CD008F5B47040424FF0FF3601271A
:1043F0000690099805900A9808F5B4740BF5B47501
:104400000490B4F5B47F0FDB06984FF4B47190FBC1
:10441000F1F04042002807DDA0EB001000EB400067
:1044200004EBC00405EBC005002D60DD5A2C0FDA4B
:10443000002C66DB5A2DB4BF28465A20CDE9004037
:10444000CDE90276DDE904324946504612F01CFB04
:104450005A3C5A3D002D4ADD5A2C13DA002C52DB0F
:104460005A2DB4BF28465A20C4F15A01C0F15A004F
:104470000090CDE90116DDE9043249465046039625
:1044800012F002FB5A3C5A3D002D30DD5A2C0FDA57
:10449000002C3ADB5A2DB4BF28465A20CDE9004003
:1044A000DDE90432CDE902674946504612F0ECFAE4
:1044B0005A3C5A3D002D1ADD5A2C15DA002C26DB09
:1044C0005A2DB4BF28465A20C4F15A01C0F15A00EF
:1044D0000090CDE9011749465046039700E00BE0F4
:1044E000DDE9043212F0D0FA5A3C5A3D9CE710F054
:1044F0001DF800287FF47DAF0BB0BDE8F04F03F04E
:1045000083BB002496E70024AAE70024C2E7002426
:10451000D6E70000500300202DE9F04F89B0154682
:104520000E46044600F0B0FE364F3868C16C006D90
:104530000E4405442088711E0844ADF81860ADF89B
:104540001C006088691E0844ADF81E00ADF81A50C2
:1045500006A810F0EDF900281CBFDFF8ACB04FF052
:10456000010A42D00020D4F80C9002F0BDFF804632
:10457000B9F1000F1BBF99F80400002828F00200D1
:1045800048F0020002F0B0FF206970B1D4E90212D5
:104590000091CDE9012ACDF80CA0D0F800C06388C5
:1045A000228829463046E04718E03868DBF80030BA
:1045B0002146427CE0689847E0B1A288E388A16880
:1045C000CDF800A0CDE90410CDE90232CDF804A069
:1045D000638822882946304605F004FE404602F0F2
:1045E00083FF0FF0A3FF0028BCD103F00DFB09B03F
:1045F000BDE8F08FE088012812BF00203868806B8A
:10460000DBE7000050030020480300202DE9FF4FA6
:104610009FB01D4616460F46804600F035FE6F4897
:104620000468D4F84CC00CEB08001F90246DE0190E
:1046300020900CEB06002190601922901F98ADF895
:1046400050002198ADF854002098ADF852002298FF
:10465000ADF8560014A810F06BF9002800F0B880EF
:1046600021991F98081A1C902C98C0F307201B90C2
:104670002C98C0F307401A902C98000E19902D9892
:10468000C0F3072018902D98C0F3074017902D987D
:10469000000E16902098069022981F9FDDE92C4569
:1046A00001904F48219E049000F0C5FC1390AC424D
:1046B00007D1204606F0DCFC32463846019B0699BD
:1046C00073E01C98401C01280CBF4FF00109A0F1B9
:1046D0000109E0B20C901B980B900DF1580E20468A
:1046E0009EE80E0C05F0FF0C4FF001083C46B74267
:1046F0005EDC0C9DA2EB0B02ACEB050CCDF840C0D0
:10470000DDF82CC0A1EB0A01A3EB0C030D930F9273
:104710001291109AE11B4A4392FBF9F30C9A129DF5
:104720001A4402F0FF0C0D9A4A4392FBF9F30B9ADC
:104730001A44D3B20F9A4CEA03234A4392FBF9F28C
:10474000694391FBF9F15A44D2B2514443EA02421F
:1047500042EA0165BC4218DD854208BF08F1010844
:1047600013D006F085FCB8F1010F07DDA4EB0800BB
:10477000621E019B069905F00FFF04E0049B601E7A
:10478000019A069998474FF00108641C2846B442E4
:10479000BFDD06F06DFC3046B8F1010F0BDDA0EB7C
:1047A0000801481C3246019B069905F0F5FE06E01B
:1047B00006F05EFC3046049B019A069998471398D0
:1047C00006F056FC0FF0B2FE00287FF463AF00BF86
:1047D00003F01AFA23B0BDE8F08F00005003002068
:1047E00035A500082DE9FF4FA1B01E4617468846A3
:1047F000044600F049FD7E48D0F800C0DCF84C507B
:1048000028192190DCF8501001EB08002290E819DB
:104810002390881924902198ADF850002398ADF882
:1048200054002298ADF852002498ADF8560014A810
:1048300010F07EF8002800F0D58022992498401AC4
:104840001C902E98C0F307201B902E98C0F30740B1
:104850001A902E98000E19902F98C0F307201890E8
:104860002F98C0F3074017902F98000E16902198AC
:104870000390DDE922800190DDE92E455D48079037
:104880000120249E1D9000F0D6FB1390AC4207D16E
:10489000204606F0EDFB33464146019A03988AE034
:1048A0001C98401C01280CBF4FF00109A0F1010920
:1048B000E0B20E901B9808900DF1580E01279EE86B
:1048C0000E0C204605F0FF0C4446B0456CDC0E9DF6
:1048D000A2EB0B02ACEB050CCDF844C0DDF820C018
:1048E000A1EB0A01A3EB0C030C92CDE90F3100BF41
:1048F000119AA4EB08014A4392FBF9F30E9A109D1A
:104900001A4402F0FF0C0F9A4A4392FBF9F3089AFB
:104910001A44D3B20C9A4CEA03234A4392FBF9F2AD
:10492000694391FBF9F15A44D2B2514443EA02423D
:1049300042EA0165444522DD854208BF7F1C1ED046
:1049400006F096FB1D98012F0DDD00281FBFE11B0F
:10495000631E019A039801BFE01B621E019B03992D
:1049600005F01AFE0AE0019A20B1079B611E039828
:10497000984703E0079B601E039998470127641C32
:104980002846B442B4DD06F073FB1D993046012F72
:1049900014DD0029A0EB070109D03346491C019A18
:1049A000039805F0F9FD14E006F062FB07E0481CEF
:1049B0003246019B039905F0EFFD0AE029B1079B00
:1049C0003146019A0398984703E0079B019A03999F
:1049D0009847139806F04CFB0FF0A8FD00287FF4D1
:1049E00046AF00BF03F010F925B0BDE8F08F00001E
:1049F0005003002061A40008F0B583B015460E46B0
:104A0000074600F041FC114C2168C86C096D064452
:104A100005440F44ADF80060ADF80450ADF80270E5
:104A2000ADF8067068460FF083FF50B120682A4643
:104A30003946406E0368304698470FF077FD0028EE
:104A4000F4D103F0E1F803B0F0BD00005003002002
:104A500070B582B00D46064600F016FC0F4C20687B
:104A6000C16C006D0E440544ADF80460ADF8006003
:104A7000ADF80650ADF8025068460FF059FF48B146
:104A800020682946406E4268304690470FF04EFD40
:104A90000028F5D103F0B8F802B070BD5003002033
:104AA0002DE9F04182B0984617460D46064600F0C3
:104AB000EBFB1E480468207E216DA0F1010CE06C28
:104AC0000D4406440744A6EB0C00ADF8000007EBCC
:104AD0000C00ADF80400A5EB0C0001EB0804ADF8E8
:104AE000020004EB0C00ADF8060068460FF020FF52
:104AF000B8B13A462946304605F0B2FC3A4621465E
:104B0000304605F0ADFC621E691C304605F012FD12
:104B1000621E691C384605F00DFD0FF007FD0028E8
:104B2000E7D103F071F802B0BDE8F0815003002036
:104B300070B58EB015460E46044600F0A5FB214622
:104B400006A804F07DFABDF81A30642B0CD10023BE
:104B500000930AAB01AA214606A803F0C7FA2A4629
:104B6000314601A8FFF7D8FC03F04EF80EB070BD37
:104B700070B582B014460D46064600F085FB10481D
:104B80000068C16C006D0E4405440444ADF800603B
:104B9000ADF80460ADF80250ADF8064068460FF07D
:104BA000C7FE40B122462946304605F0C3FC0FF04F
:104BB000BDFC0028F6D103F027F802B070BD00005C
:104BC000500300202DE9F041154D00273C46286890
:104BD00018B18047002818BF01240EF07FF8002884
:104BE00018BF01240F4E306808B1804700B99CB14E
:104BF00001272868002418B18047002818BF012425
:104C00000EF06CF8002818BF0124306810B18047FE
:104C10000028EDD1002CEBD13846BDE8F081000032
:104C200074030020700300202DE9F74F86B00C4676
:104C3000054600F029FBDFF8F0A0DAF80000C16CAF
:104C4000006D4E192044079000200FF071FE0028DF
:104C500065D0089840F2C321484304900898089909
:104C6000404301EBD17100EB6100039008983044A0
:104C700001900898301A009004984FF47A7190FBD4
:104C8000F1F0DDE9077400F1010B03980290DAF806
:104C90000010DDE90002496E0B683946984701258E
:104CA000BBF1010F37DB00BF05FB05F004FB04017E
:104CB000029881421ADD5C4517DDDAF8003006EB18
:104CC0000509A6EB05085B6EA9F1010239191B68FD
:104CD00008F101009847DAF80030A9F10102391B08
:104CE0005B6E08F101001B689847641EDAF800301B
:104CF000321979195B6E301B91461B6880469847C4
:104D0000DAF800304A46791B5B6E40461B689847CC
:104D10006D1CAB45C8DA0FF009FC0028ACD109B016
:104D2000BDE8F04F02F070BF500300202DE9F043C2
:104D300083B01D4616468846814600F0A5FA184CF9
:104D40002068C16C006D0E44054400200FF0F0FD9A
:104D5000002818BF134F1DD020681121407C57F840
:104D600020000190C068426A01A890475FEA000CE9
:104D700006D033464246494600950198E04705E093
:104D80002B46324641464846FDF73AFB0FF0CEFB34
:104D90000028E1D102F038FF03B0BDE8F083000045
:104DA0005003002068030020F0B583B01C46154670
:104DB0000E46074600F068FA10480168C86C096D95
:104DC000074405440E440C44ADF80070ADF804509F
:104DD000ADF80260ADF8064068460FF0A9FD48B195
:104DE00023462A463146384605F0D6FB0FF09EFB97
:104DF0000028F5D102F008FF03B0F0BD50030020F9
:104E0000B0F90630B0F90420B0F90210B0F9000092
:104E1000FFF7CABF2DE9FF4F8BB01D4616460C4663
:104E2000074600F031FA39480268D16CC8190B9076
:104E3000126D88190D9050190E900B98ADF8200046
:104E40000D98ADF824000E981444ADF82600ADF886
:104E5000224008A80FF06CFD002851D00E980D9943
:104E6000001B401C07900B98081A401C06901898CD
:104E700040430590189820440A900B9804900D9890
:104E80000390189807990E9F0090B1EB400F33DB09
:104E900000990698B0EB410F2EDBDDF82880DDF895
:104EA00014900E46254644451EDC049800EB010B89
:104EB00008460399A1EB000A06FB169004F04BFA92
:104EC000ABEB00015044CDE90101024629460298AE
:104ED00005F0C6FA281B391ADDE9012005F0C0FAF1
:104EE0006D1C761EA845E7DA00982946381A431E3D
:104EF000DDE9032005F050FB0FF018FB0028BCD1C2
:104F000002F082FE0FB0BDE8F08F000050030020D9
:104F1000002808BF7047B0F806C083888068BCF1DD
:104F2000080F02BF02FB0311405C704709DCBCF1B3
:104F3000010F0ED0BCF1020F17D0BCF1040F21D02D
:104F400005E0BCF1100F28D0BCF1200F2BD00020C1
:104F500070475A4302EBD10201F00701805CC1F1B6
:104F60000701C84000F0010070475A4302EB91026C
:104F7000805C062202EA4101C1F10601C84000F04E
:104F8000030070475A4302EB510211F0010F805C9D
:104F900014BF00F00F00000970475B0802FB03110B
:104FA00030F8110070479B0802FB031150F82100F4
:104FB00070470000034951F82000C1688A6A08213F
:104FC000104700006803002010B500F05DF905F0FF
:104FD00029FB05F049FD044602F016FE204610BDEF
:104FE00010B5044600F050F9054920460968C96922
:104FF0004A6800219047044602F006FE204610BD94
:105000005003002070B50C46054600F03DF9064AF5
:10501000214628461268D26952689047044602F039
:10502000F3FD204670BD000050030020002808BF9B
:1050300070470EF02DB810B500F026F905F0FAFA19
:1050400005F012FD044602F0DFFD204610BD000011
:10505000002102283CBF024951F820100846704741
:10506000C803002010B500F00FF903480068047C65
:1050700002F0CAFD204610BD5003002010B500F01C
:1050800003F904480068C069447E02F0BDFD204673
:1050900010BD00005003002010B500F0F5F803F03B
:1050A000E3FD044602F0B0FD204610BD70B5144685
:1050B0000D46064600F0E8F822462946304605F03F
:1050C00067FB10B1002028602060BDE8704002F04E
:1050D0009BBD000070B50C46054600F0D5F80648AB
:1050E000B0F9000028600548B0F900002060BDE874
:1050F000704002F089BD0000900300209203002060
:1051000002F0AEBD10B5002400F0BEF80B480068F8
:1051100090F82C1001F00C01042904D0082918BFC4
:105120000C2904D006E0C069007E441E02E0C0697C
:10513000007E440802F068FD204610BD50030020A8
:10514000024951F820000069006870476803002098
:10515000024951F820000069406870476803002048
:1051600070B50C46054600F08FF8044801684D8480
:1051700000258C8402F048FD284670BD50030020B5
:105180002DE9F0413648016821F001010160354800
:10519000012686603449016000683449884200D0A5
:1051A000FEE7334DA86970B9AE6102F037FDFDF737
:1051B00079FF06F095F805F11C012E4808600846B5
:1051C0006969416068612E20287002F051FDE8682D
:1051D000294C011DC0E90E010064091D6161417C7B
:1051E000264850F82100C1680A6B04F10801904775
:1051F00023486066A868E061E86808306061267648
:105200000DF06AFFA064032084F868006FF070401E
:1052100020636063002005F0F1FE6FF07F4005F031
:1052200027FF18482861FDF7E3FE19F007F9044647
:1052300005F020FB10B105F061FB38B905F073FBF8
:10524000074605F02CFB394605F03AFF00210846D9
:1052500002F09CF90EF062FB6E702046BDE8F08112
:10526000002000E000300240C2A507F4CDB5E8B54B
:1052700044030020C9B801089801012068030020F8
:10528000309003083890030870B5234CE06820B1D3
:1052900002F0DEFC6168884204D002F013FD02F0E7
:1052A000D7FC6060E068401CE060012818BF70BD5A
:1052B0000025A06800280DDD02F0CAFC2269C5EBBC
:1052C000051152F83110814205D0F9B1A0686D1C6A
:1052D0008542F1DB00252068854208BF70BD0028AB
:1052E00012DBFEF76DFE2168C1EB0112216901EBB3
:1052F000C2025067C5EB0510084A01EBC000011D52
:105300001160406FFEF7F8FD256070BDC5EB05111B
:1053100042F83100DFE700007C0500205003002048
:1053200010B4021ECCBF034653420120DFF820C058
:10533000014600BF5CF820409C4203D8401C491C39
:105340000929F7DD002AB8BF401C10BC70470000D7
:105350006CB5030810B582B0040006D10F48006890
:10536000046E002C04BF02B010BDFFF78DFF204675
:10537000FEF76EFA009044696846FEF701FB4CB1F7
:105380002046FEF765FA019081688968884701A880
:10539000FEF7F6FA02F038FC02B010BD5003002010
:1053A00001490A4600F002B801F0FFFF002808BFDB
:1053B00070472DE9F04786B016460C468146FFF748
:1053C00063FF002002F090F8314D80462868076E98
:1053D0004846FEF73DFA00900068806901F0C6FF7C
:1053E000824640F6FF70C44204D10098B0F90440F0
:1053F000B0F906600098621E0189ADF808401144BA
:10540000ADF80C104089711E0844ADF80A60ADF883
:105410000E000DF097F96846FEF7B2FA02A80FF0F9
:1054200087FA40B132462146484600F0CFFC0FF0E3
:105430007DF80028F6D1504601F098FF3C46FFF772
:1054400023FF2868006EFCB1002818BF01F080FF20
:105450000DF02CFB2046FEF7FBF9019029680C6645
:105460000068FEF7F5FC01A8FEF78AFA05F026FFB2
:1054700005F0F0FD02F0C8FB404602F035F802F0FE
:10548000C3FB06B0BDE8F08701F062FFF2E7000061
:10549000500300202DE9F04F83B01F469046894607
:1054A00082464FF0000B0C9EFFF7EEFE1B48006893
:1054B000417C1B4850F82140E0680068042803D074
:1054C0002468002CF8D100E03CB90846FEF78CFDBA
:1054D000041E04BF03B0BDE8F08FE0680121C26A7A
:1054E00020469047050012D02469A0688047B0F19B
:1054F000FF3F04BF0B4C46F001063B460096CDE94A
:10550000015442464946504600F0E4FA834602F010
:105510007BFB03B05846BDE8F08F0000500300202D
:1055200068030020A0E50308002808BF704738B5CD
:105530000446FFF7A9FE0E480068006EA04208BFAF
:1055400001F006FF2046FEF783F90090406900282D
:1055500018BF02F041FB00980068FEF777FC684630
:10556000FEF70EFA2046FEF73FF802F04DFB38BD7D
:10557000500300202DE9FF4F83B01F4689460546A2
:10558000DDF840A0FFF780FE4F480068447C4F489C
:1055900000570128204606DD05F072F983462046B3
:1055A00005F0B2F905E005F018F98346204605F04C
:1055B0003DF904462DB302A901A8FFF78BFDB5F90B
:1055C0000080B8F1000FB8BF4FF00008B5F90260D5
:1055D000002EB8BF0026B5F9041001985844401EAB
:1055E0008142C8BF0146B5F90600029A2244521E04
:1055F0009042C8BF1046A1EB08014A1C801B441C06
:1056000003E04FF0000846465A46002F08BF6742A5
:10561000002AC8BF002C49DD3B4631464046CDF844
:1056200000A0FFF737FF5FEA000A45D000F0CCF892
:105630000746A04207D024480068806C00281CBFA1
:1056400032210FF037FD504600F0B2F9DFF880B09C
:105650000025611BB942BCBF504600F08BF93DB13B
:1056600072194146504600F0CBF95046FFF772FEE2
:105670000598C847DBF8001000291CBF00208847A8
:105680005046FFF78DFE3D44A542E2DB5046FFF752
:105690004BFF002000F08CF9A74207D00A480068B1
:1056A000806C00281CBF33210FF004FD02F0ACFA1F
:1056B00007B00020BDE8F08F0598C84702F0A4FAB3
:1056C00007B00120BDE8F08F5003002088030020C0
:1056D000BC05002038B505004FF0000411D0FFF7DD
:1056E000D3FD2846FEF7B4F8009000680069806892
:1056F000804706F043F804466846FEF741F902F099
:1057000083FA204638BD38B5040008BF38BDFFF71E
:10571000BBFD2046FEF79CF800F118040090684697
:10572000FEF72EF902F070FA204638BD38B504466F
:105730000025FFF7A9FD1CB908480068046E44B1B4
:105740002046FEF785F80090B0F904506846FEF751
:1057500017F902F059FA284638BD0000500300201E
:1057600038B504460025FFF78FFD1CB908480068CE
:10577000046E44B12046FEF76BF80090B0F9085073
:105780006846FEF7FDF802F03FFA284638BD0000F3
:105790005003002038B504460025FFF775FD1CB9FD
:1057A00008480068046E44B12046FEF751F80090A6
:1057B000B0F906506846FEF7E3F802F025FA2846ED
:1057C00038BD00005003002038B504460025FFF71F
:1057D0005BFD1CB908480068046E44B12046FEF722
:1057E00037F80090B0F90A506846FEF7C9F802F0A1
:1057F0000BFA284638BD0000500300202DE9F04F79
:1058000085B080464FF0000A4046FEF721F803902D
:10581000D0E90095D0F824B003A8FEF7B1F828B27B
:105820000FFA89F7C01B441C4FEA2946C6EB2540F6
:10583000451C002CCCBF002D0AF1010A7EDDBBF116
:10584000000F16D05846FEF703F80490B0F9044054
:10585000B0F9065004A8FEF793F80FFA89F0A042B9
:1058600008BFAE425AD032463946584600F0C8F812
:1058700054E00DF031FC804511D104F0E7FF814682
:1058800005F028F84C45D8BF854208DD4C4562DC60
:10589000854262DC2A46214640460EF0ABFC314987
:1058A00001202F4ACDE900010292314638462B46AD
:1058B000224600F00FF906464046FDF7C9FF039067
:1058C0004662BEB3816A41F48031816203A8FEF76B
:1058D00057F8304600F06CF80746012002F016FA3F
:1058E0003046FFF710FF04FB05F18A001E490978D6
:1058F00003F076FC1D4D1E4C4046C5F8008026681E
:105900000DF065FD206040460FF078FA002026601B
:10591000286002F0FBF9384600F04AF84046FEF7EE
:1059200047F8406A0AF1010A40B105B0BDE8F04FFE
:1059300000F09EB803A8FEF723F800E004E040461C
:105940000FF05CFA0AF1010ABAF1050FFFF65CAF3D
:1059500005B0BDE8F08F4C469AE705469AE700008F
:10596000A0E50308F8ED0308C0050020B4040020FA
:105970008403002038B50C46050005D10B480068AB
:10598000056E002D08BF38BDFFF77EFC2846FDF7E9
:105990005FFF0090B0F90A10A142B8BF0C464481E5
:1059A0006846FDF7EDFF02F02FF938BD50030020E7
:1059B000F8B50446FFF768FC104E3068056ECCB1B0
:1059C000002D18BF01F0C4FC0DF070F82046FDF763
:1059D0003FFF009031680C660068FEF739FA6846B0
:1059E000FDF7CEFF05F06AFC05F034FB02F00CF980
:1059F0002846F8BD01F0ACFCF8E700005003002099
:105A000070B582B015460E46040006D117480068EE
:105A1000046E002C04BF02B070BDFFF735FC2046B9
:105A2000FDF716FF2DB20090C58034B2848005F0DA
:105A300011FB0098406988B1FDF70AFF009A0190B8
:105A4000B2F908108180B2F90A20C28000291EBF75
:105A5000002A0480458001A8FDF792FF6846FDF703
:105A60008FFF02F0D1F802B070BD0000500300209B
:105A700070B584B0040004BF04B070BDFFF704FC2F
:105A80002046FDF7E5FE0290B0F904600189B0F907
:105A90000650721E1144ADF80410ADF80060408944
:105AA000691E0844ADF80600ADF8025002A8FDF7E3
:105AB00067FF68460EF03CFF40B12A46314620465B
:105AC00000F06AF90EF032FD0028F6D102F09CF8E1
:105AD00004B070BD2DE9FF4FDFF8FCB083B01C4669
