:020000040800F2
:1000000068080020B53E0208ED3E0208EF3E0208F7
:100010001D3F02081F3F0208213F020800000000A8
:10002000000000000000000000000000C9450208B8
:10003000233F02080000000049BE0008DB9B0008C7
:10004000CD450208D1450208D5450208D945020828
:10005000DD450208E1450208E5450208E9450208D8
:10006000ED450208F1450208F5450208F945020888
:10007000FD45020801460208054602080946020835
:100080000D460208114602081546020819460208E4
:100090001D46020821460208254602082946020894
:1000A0002D46020831460208354602083946020844
:1000B0003D460208414602084546020849460208F4
:1000C0004D460208514602085546020859460208A4
:1000D0005D46020867D200086146020865460208CC
:1000E000694602086D460208714602087546020814
:1000F000794602087D4602088146020885460208C4
:10010000894602080D3401088D460208914602080E
:1001100095460208994602089D460208A146020833
:10012000A5460208A9460208AD4602081534010892
:10013000B1460208B5460208B9460208BD460208A3
:10014000C1460208C5460208C9460208CD46020853
:10015000D1460208D5460208D9460208DD46020803
:10016000E1460208E5460208E9460208ED460208B3
:10017000F1460208F5460208F9460208FD46020863
:100180000147020805470208094702080D4702080F
:100190001147020815470208194702081D470208BF
:1001A00059670008214702084367000830B5044634
:1001B000DFF8F40A83B00568696C21B9204601F0C4
:1001C00005FF03B030BD01A8082201F019FFDFF8D8
:1001D000300CC06D00B9A86C02F0F4FB0090B0F9CF
:1001E0000220B0F9001001A802F0C2FC684602F03B
:1001F000FAFB214601A802F0C9FC01A801F0E6FEC5
:1002000003B030BD2DE9F04107460E4686B090465A
:10021000304602F0CFFB806AC0034CBF4FF48045EC
:100220002025002E00F0A680304602F0CBFB019086
:10023000846AA00740F19B80019A394604A802F025
:10024000C5FC002800F0938040F6010707EA04008F
:10025000012809D10198026A81692B4604A800F09F
:10026000FDF90198C66957E0304602F0A3FB009003
:10027000806A810746D5BDF91410BDF9102091425E
:10028000A2BFBDF91610BDF9122091423ADB3840E9
:10029000012837D0304602F095FB0090024604A9B1
:1002A00002A802F093FCBDF90C00BDF908108842C9
:1002B000A2BFBDF90E00BDF90A1088421FDB0098ED
:1002C000806A44F22001084207D0009800F108013A
:1002D00002AA083002F0A9FC11E00098083002A937
:1002E000082201F08DFE00980099806A28438862F8
:1002F000DFF80C0B818E491C818602F0C5FC684634
:1003000002F071FB0198C66906E0684602F06BFBDB
:10031000304602F04FFB066A4EB3464527D03046C2
:1003200002F050FB009090F828008007EDD5009A6D
:1003300004A902A802F04AFC0028E6D0684602F0B0
:1003400052FB2A4602A9304600F017F8304602F068
:10035000A5FC0700DCD02A4602A9384600F04CF97B
:10036000384602F027FB076A002FF4D1D0E701A836
:1003700002F039FB06B0BDE8F08170B584B00646E6
:100380000C46154602F016FB0090806A810748D59E
:10039000B4F90410B4F900209142A2BFB4F90610D8
:1003A000B4F9022091423CDB40F6010108400128EB
:1003B00037D0304602F006FB00900246214601A8E5
:1003C00002F004FCBDF90800BDF904108842A2BF88
:1003D000BDF90A00BDF9061088421FDB0098806A4B
:1003E00044F22001084207D0009800F1080101AA58
:1003F000083002F01AFC11E00098083001A9082228
:1004000001F0FEFD00980099806A28438862DFF8B9
:10041000F009818E491C818602F036FC684602F0A4
:10042000E2FA04B070BD000010B5DFF87C08DFF818
:10043000D04984B0006890F8541029B104F1080044
:10044000FFF7B4FE04B010BD806C02F0BBFA01905F
:1004500002A80199082201F0D3FD01A802F0C3FA15
:10046000E46DC4B102E000BF02F0BDFA204602F024
:10047000A9FA009090F82800800701D4684608E0A7
:10048000009902A802F082FB00988469002C68465B
:10049000EAD102F0A8FA02A8FFF788FE04B010BD66
:1004A00070B50D0084B004464DD002F08BFA019077
:1004B00000200199086201988561284602F082FABD
:1004C0000290019890F8280000F008050298C6698B
:1004D0002EB9C46101A802F086FA02A831E03046C4
:1004E00002F070FA00907DB990F8280000070BD553
:1004F000019806620298C46101A802F074FA02A889
:1005000002F071FA68461CE002A802F06CFA684634
:1005100002F069FA304602F04DFA00900098066A3F
:100520000EB904620CE0304602F044FA002DF4D11A
:1005300090F828100907F0D5009804620198066227
:1005400001A802F050FA04B070BD70B5044602F084
:1005500031FA0546A869A0B102F02CFA0646F16905
:10056000A14205D1084602F025FA006AF06170BD8B
:1005700039B1084602F01EFA016AA142F8D1296A8F
:10058000016270BD10B50446DFF87408C06B02E06C
:1005900002F010FA406910B1A042F9D1012010BD5B
:1005A00010B5040082B025D002F00CFA009090F84B
:1005B000280080071BD50098406A00281EBFDFF87E
:1005C000E4190968A14204D002F040FC009900201F
:1005D0004862204602F062FB040008D02046FFF784
:1005E000DFFF204602F0E6F9046A002CF6D16846E7
:1005F00002F0F9F902B010BD70B5040084B00D46E8
:10060000164629D002F0DEF9009090F82800800705
:1006100005D5009A294601A802F0D8FA20B9684603
:1006200002F0E1F904B070BD684602F0DCF9324630
:1006300001A92046FFF7A1FE204602F02FFB04008F
:100640000AD0324601A92046FFF7D6FF204602F025
:10065000B1F9046A002CF4D104B070BD2DE9F04169
:100660000F0086B006461446984659D0384602F028
:10067000A9F90090856AA8074FD5009A314602A8CB
:1006800002F0A4FA002848D040F6010028400128D2
:1006900009D10098026A8169434602A8FFF7DEFF8C
:1006A0000098C6690EE0424602A93846FFF765FE8B
:1006B0000098C66906E001A802F095F9304602F0FC
:1006C00079F9066A4EB3A64227D0304602F07AF98D
:1006D000019090F828008007EDD5019A02A904A89E
:1006E00002F074FA0028E6D001A802F07CF9424634
:1006F00004A93046FFF741FE304602F0CFFA07006A
:10070000DCD0424604A93846FFF776FF384602F0AF
:1007100051F9076A002FF4D1D0E7684602F063F977
:1007200006B0BDE8F081F0B50D0087B0064614466E
:1007300000F0A780284602F045F90190876AB807C3
:1007400040F19C80019A314604A802F03FFA00284B
:1007500000F0948040F6010606EA0700012809D15E
:100760000198026A8169202304A8FFF777FF0198A6
:10077000C56958E0284602F01DF90090806A81079B
:1007800047D5BDF91410BDF910209142A2BFBDF9A3
:100790001610BDF9122091423BDB3040012838D0C1
:1007A000284602F00FF90090024604A902A802F0C0
:1007B0000DFABDF90C00BDF908108842A2BFBDF9C1
:1007C0000E00BDF90A10884220DB0098806A44F2CE
:1007D0002001084207D0009800F1080102AA083061
:1007E00002F023FA12E00098083002A9082201F072
:1007F00007FC00980099806A40F020008862DFF8CA
:100800000006818E491C818602F03EFA684602F09D
:10081000EAF80198C56906E0684602F0E4F828465F
:1008200002F0C8F8056A4DB3A54227D0284602F069
:10083000C9F8009090F828008007EDD5009A04A927
:1008400002A802F0C3F90028E6D0684602F0CBF80F
:10085000202202A92846FFF790FD284602F01EFA42
:100860000600DCD0202202A93046FFF7C5FE304644
:1008700002F0A0F8066A002EF4D1D0E701A802F039
:10088000B2F807B0F0BD70B5060084B00C4615464E
:100890004ED0304602F096F80090866AB00740D5F8
:1008A0002DB100992A4601A802F090F904E00099C0
:1008B00001A8082201F0A4FB01A9204602F0A6FB32
:1008C00078B3F0071FD40098B0F90200002D04D0CF
:1008D000B5F902108142A8BF0846B4F9021081425E
:1008E00009DABDF90600B4F90620411E914218DA72
:1008F000401EE08015E0BDF90A00B4F906108842F8
:100900000FDAE0800DE00098C66956B101AA2146D1
:100910003046FFF7B8FF304602F04CF8066A002E6A
:10092000F4D10098066A684602F05DF8002EB0D156
:1009300004B070BDF0B507460026002F83B00C460A
:10094000154636D0384602F03DF80090876AB80761
:1009500028D52DB100992A4601A802F037F904E004
:10096000009901A8082201F04BFB01A9204602F0E2
:100970004DFBB8B1F80705D4BDF80800401C208035
:1009800001260FE00098C76967B101AA21463846E1
:10099000FFF7D0FF00B10126384602F00BF8076AD6
:1009A000002FF2D10098076A684602F01CF8002F69
:1009B000C8D1304603B0F0BD70B5060084B00C4617
:1009C000154633D0304601F0FDFF0090866AB0072F
:1009D00025D52DB100992A4601A802F0F7F804E0C8
:1009E000009901A8082201F00BFB01A9204602F0A2
:1009F0000DFBA0B1F00704D4BDF80400401EA08098
:100A00000DE00098C66956B101AA21463046FFF7AD
:100A1000D3FF304601F0CEFF066A002EF4D10098D5
:100A2000066A684601F0DFFF002ECBD104B070BD2E
:100A300030B5040081B00D460AD002F02EFB2946E5
:100A4000204602F0E7FB01B0BDE8304002F01DBBDC
:100A500001B030BD00B585B000910190694602F04B
:100A6000D9FB05B000BD00224A800A800388828835
:100A7000D21A8A80C2884088101AC880704770B520
:100A8000040086B00E465FD002F007FB204601F05E
:100A900099FF0090856AA80751D5009902A80822FD
:100AA00001F0AEFAE80344BF2046FFF779FD86B1B6
:100AB00004A83146082201F0A3FA0098B0F90220F8
:100AC000B0F9001004A802F053F804A902A802F03B
:100AD0005DF8264603E0064601A801F084FF304693
:100AE00001F070FF019090F82800800703D401A85E
:100AF00001F079FF23E0019902A802F047F801987C
:100B000080690028E7D101A801F06DFFBC48816928
:100B10008E421CBFC069864211D140F601002840B8
:100B2000012807D10098026A8169202302A8FFF7F3
:100B300095FD04E0202202A92046FFF71EFC68462E
:100B400001F051FF02F0A1FA06B070BD002196E756
:100B50002DE9F04F87B00746884691469A4602F045
:100B60009CFAA74C1198E16C109E41EA00053EB931
:100B7000608E58B34C480068407C04EB8000866966
:100B800016F1010F08BF002620D0FEB1304601F05B
:100B900019FF01900199B0F90000B1F90210C719CD
:100BA000B9F1000F884405D1019AB2F90420101A56
:100BB00000F10109BAF1000F05D10198B0F9060062
:100BC000401A00F1010A01A801F00DFF13982C3022
:100BD00002F040FB5FEA000B5ED0608E401C608636
:100BE000584601F0EFFE009007800098A0F80280C0
:100BF00009EB07000099401E88800AEB0800009965
:100C0000401EC880009912980861DFF8281C0098DF
:100C1000806A2940084300998862684601F0E3FE33
:100C2000E06B50B101F0C6FE0746584601F0C2FE27
:100C300079694161C7F814B001E0C4F83CB03146AD
:100C40005846FFF72DFCA80644BF584600F074F93B
:100C5000E80702D5A06D401CA065680644BF584651
:100C600002F011FBA8070FD5584601F0ABFE00902B
:100C70000099806A40F002008862684601F0B3FE85
:100C800000215846FFF7FBFE01200290CDF80CB082
:100C900002A9584602F0BEFA02F0F7F9584607B02A
:100CA000BDE8F08F00000000B40100202DE9F04FF6
:100CB00087B09A4691468846044602F0EEF9504DB8
:100CC0001098E96C41EA0006688E002760B3DFF8EF
:100CD000680B0068407C05EB8000876917F1010F05
:100CE00008BF002720D0FFB1384601F06BFE01900D
:100CF0000199B0F90000B1F902100419B9F1000F1F
:100D0000884405D1019AB2F90420101A00F10109B2
:100D1000BAF1000F05D10198B0F90600401A00F1B0
:100D2000010A01A801F05FFE12982C3002F092FA3D
:100D30005FEA000B5ED0688E401C6886584601F062
:100D400041FE009004800098A0F8028009EB0400A6
:100D50000099401E88800AEB08000099401EC88058
:100D6000009911980861DFF8CC1A0098806A314028
:100D7000084300998862684601F035FEE86B50B17F
:100D800001F018FE0446584601F014FE6169416105
:100D9000C4F814B001E0C5F83CB039465846FFF736
:100DA0007FFBB00644BF584600F0C6F8F00702D5F6
:100DB000A86D401CA865700644BF584602F063FA4F
:100DC000B0070FD5584601F0FDFD00900099806AEC
:100DD00040F002008862684601F005FE0021584696
:100DE000FFF74DFE01200290CDF80CB002A9584645
:100DF00002F010FA02F049F9584607B0BDE8F08F4A
:100E0000A08C0020F0B5040087B000F0938002F0C1
:100E100044F9DFF8DC5CE86B03E000BF01F0CAFDD9
:100E20004069002800F08480A042F7D120460746A0
:100E300001F0C0FD80690028F9D1A8690026874229
:100E40001FBF0126E86987424FF0FF360B20029052
:100E5000039402A9204602F0DDF9204602F068FA68
:100E6000204601F0AFFD0190406A08B101F0EEFFAD
:100E700000206866A86B05EB8000816AA14204BF70
:100E800000218162016AA14204BF00210162286C35
:100E900038B14168A14204BF0021416000680028C8
:100EA000F7D10721204602F07FFA019FF869FFF78A
:100EB000A9FFF8690028F9D1204601F083FD0090D0
:100EC000816949B1026A2023FFF7C8FB2046FFF77A
:100ED0003CFB009900208861684601F084FDE86BC6
:100EE00050B101F067FD07467869A042F8D120466D
:100EF00001F060FD406978610198806AC10702D500
:100F0000A96D491EA965800602D5A88E401EA88637
:100F100001A801F068FD688E401E6886204601F039
:100F2000DBFD002E04D405EB8600806900F004F898
:100F300002F0ABF807B0F0BDF0B581B0064602F0A4
:100F4000ACF8DFF8F4482068856C16B9DFF8A01B10
:100F5000CE6B86643046074601F02CFD8069002880
:100F6000F9D1DFF88C1B8A6997421DBF0120C9693E
:100F70008F4202F03EFA02F085FD304601F01AFD84
:100F80002168B0F90020CA64B0F90200086502F0D7
:100F90007CF8284601B0F0BDDFF89C080068806C42
:100FA00070470000E09200202DE9F041DFF8408B0F
:100FB00086B0D8E90201CDE90101D8F8100030B9B6
:100FC000B8F80000ADF80400B8F8020015E0B8F871
:100FD0000C00401CADF80400B8F80A00BDF904107C
:100FE000ADF80600B8F90400884208DAB8F8000045
:100FF000ADF80400B8F80E00401CADF80600B8F9D2
:101000000600BDF906108842C0F26881DFF8285852
:101010002868806C01F0D6FC0590B8F90010BDF985
:10102000040088425CD1B8F80600ADF80A00B8F8B0
:101030000400ADF808002868806C002800F04A80A1
:1010400001F0B8FC0646376A002F40D0384601F060
:10105000B9FC0090876AB80732D5009903A8082226
:1010600000F0CEFF03A901A801F0D0FF40B3F807BC
:1010700018D4009ABDF90610B2F90220BDF90A0091
:10108000914208DABDF90E104A1E824218DA481E53
:10109000ADF80A0014E0BDF91210814210DAADF883
:1010A0000A100DE00098C76957B103AA01A9384694
:1010B000FFF7E9FB384601F07DFC076A002FF4D109
:1010C0000098076A684601F08EFC002FBED1B06917
:1010D0000028B5D10598C069002201A9FFF7D3FB0C
:1010E000BDF80400ADF808002868806C18E000988E
:1010F000C46964B103AA01A92046FFF71BFC00B133
:101100000127204601F056FC046A002CF2D1009819
:10111000046A684601F067FC54B9002FE0D1B06959
:1011200008B301F047FC06460027346A002CF6D0CD
:10113000204601F047FC0090846AA007E7D500999B
:1011400003A8082200F05CFF03A901A801F05EFFDC
:101150000028DCD0E007CAD4BDF81000401CADF870
:1011600004000127D3E70598C769002697B33846DE
:1011700001F028FC0090876AB80722D5009903A8DF
:10118000082200F03DFF03A901A801F03FFFC0B114
:10119000F80706D4BDF81000401CADF80400012685
:1011A0000FE00098C76967B103AA01A93846FFF7A5
:1011B000C1FB00B10126384601F0FCFB076A002F95
:1011C000F2D10098076A684601F00DFC002FCED1DD
:1011D000002E85D1BDF90410B8F90400ADF808005F
:1011E000884207DADDE90101C8E9020105A801F03A
:1011F000FAFBFBE62868D0F84800A8B301F0DAFB58
:1012000005462E6A6EB3304601F0DCFB0090866A1C
:10121000B0071FD5009903A8082200F0F1FE03A92A
:1012200001A801F0F3FEA8B1F00705D4BDF80C0049
:10123000401EADF808000DE00098C66956B103AA3B
:1012400001A93046FFF7B8FB304601F0B3FB066A50
:10125000002EF4D10098066A684601F0C4FB002E07
:10126000D1D1A8690028C9D10598C5696DB32846B0
:1012700001F0A8FB0090856AA8071FD5009903A874
:10128000082200F0BDFE03A901A801F0BFFEA8B12D
:10129000E80705D4BDF80C00401EADF808000DE0CD
:1012A0000098C56955B103AA01A92846FFF784FB38
:1012B000284601F07FFB056A002DF4D10098056AED
:1012C000684601F090FB002DD1D105A801F08BFB01
:1012D000D8F8100044F62161884203DB002006B0F4
:1012E000BDE8F081DDE90101C8E9020106B0012095
:1012F000BDE8F08130B5DFF8405585B0286890F83A
:101300005400002843D0DFF8EC476069022805DA72
:101310002069401C2061FFF747FE28B96069401E24
:10132000606105B0002030BD286890F8541021B1EC
:1013300004F10800FEF73AFF28E0806C01F042FB60
:10134000019002A80199082200F05AFE01A801F0BC
:101350004AFBE46DBCB101E001F045FB204601F021
:1013600031FB009090F82800800701D4684608E01F
:10137000009902A801F00AFC00988469002C6846D4
:10138000EAD101F030FB02A8FEF710FF012005B002
:1013900030BD70B5DFF8A0548AB006462868DFF883
:1013A000F84B90F8541051BB806C01F00BFB01908E
:1013B00004A80199082200F023FE01A801F013FB04
:1013C000E46DB4B102E0684601F00DFB204601F087
:1013D000F9FA009090F82800800707D5009904A832
:1013E00001F0D4FB00988469002CECD1684601F030
:1013F000FAFA04A8FEF7DAFE01200AB070BD6169AE
:10140000491C0229616180F2D080806C01F0DAFA17
:1014100002904FF0FF30206194F8300050B30299F1
:1014200006A80831082200F0EBFD1EB1314606A8DF
:1014300001F0ACFB2868416C59B302980390082274
:1014400008A800F0DDFDE06D30B103A801F0CBFA93
:10145000E06D01F0B7FA03900398B0F90220B0F9FB
:10146000001008A801F084FB08A906A801F08EFB73
:1014700003A80FE0029890F82800800702D502998F
:1014800006A8CFE76069401E606102A801F0ABFAD0
:1014900091E002A801F0A7FAE66D0EB303E006465C
:1014A000684601F0A0FA304601F08CFA009090F8FE
:1014B0002800800703D4684601F095FA78E0009987
:1014C00006A801F063FB009880690028E7D1684610
:1014D00001F089FAA06986421CBFE069864267D1A3
:1014E0002868866C03E00646684601F07CFA3046C0
:1014F00001F068FA009090F828008007DBD5009989
:1015000006A801F043FB009880690028EBD16846EB
:1015100001F069FAA06986421CBFE069864247D1A2
:10152000DDE90601C4E90001286890F854000028AC
:1015300042D0606902283BDA2069401C2061FFF735
:1015400033FDA8B3286890F8541031B104F10800B5
:10155000FEF72CFE01200AB070BD806C01F032FA5B
:10156000019004A80199082200F04AFD01A801F0A9
:101570003AFAE46DB4B102E0684601F034FA20466C
:1015800001F020FA009090F82800800707D5009914
:1015900004A801F0FBFA00988469002CECD168469D
:1015A00001F021FA04A8FEF701FE01200AB070BD87
:1015B0006069401E606100200AB070BD70B58CB0DB
:1015C000044601F0FFF90190866A0569019903A8B4
:1015D0000831082200F014FD01A801F004FA002DE2
:1015E00000F08280B00740F17F802E21204602F07B
:1015F00005FBDFF8FC5495F83000401C85F83000FE
:10160000F00410D50F200790089403A80A9002F068
:101610000DFBDFF8881909680020486407A92046F7
:1016200001F0F8FD57E003A8FFF7B3FE20B952E040
:1016300005F10800FEF7BAFD0F20079003A80A90F5
:10164000089402F0F3FADFF8546931680020486426
:1016500007A9204601F0DEFD306890F8540000280C
:1016600039D06869022833DA2869401C2861FFF7FD
:101670009BFC68B3306890F854100029D8D1806C76
:1016800001F0A0F9029005A80299082200F0B8FC28
:1016900002A801F0A8F9EE6DB6B102E0684601F0CB
:1016A000A2F9304601F08EF9009090F828008007EA
:1016B00007D5009905A801F069FA00988669002EFF
:1016C000ECD1684601F08FF905A8FEF76FFDB3E78E
:1016D0006869401E68612F2195F83000401E85F82A
:1016E0003000204602F08AFA0CB070BD2DE9F04FB0
:1016F00087B0804601F066F9009090F828008007D6
:1017000040F192800098DFF89898C569DFF894A8B6
:10171000494CDFF884B8002D00F08680284601F09F
:1017200051F9019090F8280000F00300032873D1CC
:10173000009800F10801019801F068FC00286BD0C6
:10174000009904A80831082200F05AFC684601F00C
:101750004AF901A801F047F92068806C01F032F9DC
:101760000390284601F02EF90290014603980830B4
:1017700001F04CFC00283BD02068C66C076D039834
:10178000029900F1080201F1080001F01FFA03A814
:1017900001F029F90299CBF85C502068B1F90010EA
:1017A000C1640299B1F90210016502A801F01BF9A8
:1017B000284601F0FFF8806AC0034CBF51464946F5
:1017C000284688470020CBF85C002068C66407657F
:1017D000284601F0EFF801902846FFF787FF2846DA
:1017E00001F0E8F80190404601F0E4F8009005E0CF
:1017F00003A801F0F8F802A801F0F5F8404601F05E
:10180000E1F80090284601F0DDF8019004A9009865
:101810000830082200F0F4FB0198056A01A801F0E5
:10182000E2F8002D7FF47AAF684601F0DCF807B0EB
:10183000BDE8F08F9F3F3F00B40100202DE9F04F3D
:1018400089B0054601F0BEF8059040F60101806AB6
:10185000084001280ED005A801F0C5F8284601F07F
:10186000A9F8806AC0034CBFDFF83817DFF83017DB
:10187000284688479E4CA06D002800F00981284624
:10188000FFF734FF284601F095F8DFF8106781690B
:10189000DFF80C97DFF80C8704910029056A00F047
:1018A000F780002D00F0EB80284601F083F890F8D7
:1018B000280000F00300032841D13068806C01F05B
:1018C00081F80090284601F07DF8019001460098CB
:1018D000083001F09BFB60B33068C76CD0F850A0B3
:1018E0000098019900F1080201F1080001F06EF979
:1018F000684601F078F80199E5653068B1F90010A3
:10190000C1640199B1F90210016501A801F06BF8F9
:10191000284601F04FF8806AC0034CBF4146494653
:10192000284688470020E0653068C764C0F850A0AA
:1019300005E0684601F057F801A801F054F8284680
:1019400001F040F8029090F82800800740F18D8067
:101950000298C769002F00F08880384601F032F8FD
:10196000039090F8280000F00300032875D1029836
:1019700000F10801039801F049FB00286DD002999D
:1019800006A80831082200F03BFB02A801F02BF862
:1019900003A801F028F83068806C01F013F801907A
:1019A000384601F00FF8009001460198083001F028
:1019B0002DFB00283DD03068D0F84CA0D0F850B0B6
:1019C0000198009900F1080201F1080001F0FEF809
:1019D00001A801F008F8E76500993068B1F9001036
:1019E000C1640099B1F902100165684600F0FBFF7F
:1019F000384600F0DFFF806AC0034CBF41464946CD
:101A0000384688470020E0653068C0F84CA0C0F830
:101A100050B0384600F0CEFF03903846FFF766FE20
:101A2000384600F0C7FF0390284600F0C3FF02903D
:101A300005E001A800F0D7FF684600F0D4FF284673
:101A400000F0C0FF0290384600F0BCFF039006A9EA
:101A500002980830082200F0D3FA0398076A03A816
:101A600000F0C1FF002F7FF478AF02A800F0BBFFA9
:101A7000284600F09FFF056A002D7FF415AF0498FB
:101A800000F098FF056A8069049000287FF409AF90
:101A900009B0BDE8F08F30B5DFF8005583B00446DB
:101AA0002868806C00F08EFF009001A80099083132
:101AB000082200F0A5FA00982968083008310822A9
:101AC00000F09EFA684600F08EFF2068FFF7B6FE31
:101AD0002868806C00F076FF009001A90830082289
:101AE00000F08EFA684600F07EFF03B030BD0000C3
:101AF000A08C0020A08C00202DE9F04FA5B001F0B3
:101B0000CCFADFF89454286E0024010002D08047FC
:101B100000E00124A86EF8B101F0BFFAEE6BBEB18F
:101B2000304600F04FFF00900099896A406909042F
:101B300008D537460646684600F055FF3846FFF799
:101B400061F903E00646684600F04DFF002EE7D13C
:101B50000020A86601F099FA286D010018BF80479F
:101B6000DFF84C040068010002D080470028D0D183
:101B7000DFF82804006890F85400A0B102F07EF865
:101B80000028C6D1DFF81404006890F8540000283B
:101B90001CBFA88E002806D001200390686D28B1D4
:101BA0000068804705E00020039002E0012002F079
:101BB000E9F801F06AFA00E00124DFF8E0030068C8
:101BC00090F8540010B3A88E00B301F066FA6F6E5F
:101BD000012607B9EF6B08A802F0DEF8DFF8BC03B6
:101BE0000068016B0791002F406B06903CD107986D
:101BF0006F6602F0EAF8069802F0DCF808A802F036
:101C0000D0F801F042FAA88E0028D5D101F045FAAB
:101C10000398002800F08780686D002800F081801C
:101C2000406880477FE00298FFF708FE4FF0010808
:101C3000029800F0C7FE0190DFF87013806A084038
:101C4000810448BF40F004000199886201A800F0B7
:101C5000CAFEA88E401EA886B8F1000F18BF761ED7
:101C6000384600F0A7FE4769002F18BF002EBED0EF
:101C70000297384600F0A6FE019004A801990831A9
:101C8000082200F0BDF90198D0F82890D0F818A0EB
:101C9000D0F810B001A800F0A6FE44F2200019EA26
:101CA000000F4FF00008DBD0BBF1000FC0D0DDF813
:101CB00008B003E08346684600F095FE584600F001
:101CC00081FE009090F82800800703D4684600F059
:101CD0008AFEADE7009904A800F058FF00988069DB
:101CE0000028E7D1684600F07EFEA86983451CBF46
:101CF000E86983459CD10298FFF71EF95FEA4970B5
:101D000091D5BAF1000F0EBF012009F0010080F05B
:101D100001000090002302AAA34904A802F060F881
:101D200086E702F02FF801F0B0F9204625B0BDE8B3
:101D3000F08F10B5044620680E2802D00F2809D075
:101D40001EE0E068416801291ED1BDE8104000682E
:101D500001F08EBF904A60689369002198421FBFCE
:101D60000121D36998424FF0FF3102EB81006FF0FF
:101D70007041406C884203D002F01CF802F0F1F888
:101D80002046BDE8104016E010BD844909680120D6
:101D900081F85400704700B5804981B0096800207F
:101DA00081F8540001F079F901F06CFE01B05DF8A2
:101DB00004EB01F06AB910B50446216860680E2989
:101DC0000ED0142906D0172908D022290DD0282991
:101DD0000FD002E0E16802F093F90020E06010BD4E
:101DE0002146BDE8104002F0C3B96FF07040E060DA
:101DF00010BDBDE810400021FEF741BE664800213D
:101E000080F831108166016481620162C1624162C1
:101E10008165C165C164416570472DE9F04F5E4C35
:101E200085B094F83100002840F0B2805B49E0634F
:101E30006066002509684864A086608604F118067B
:101E400004F1440943F6FE78284602F0A7F9002879
:101E500070D001F022F9E06C40F002072C2001F074
:101E6000F9F95FEA000A59D0608E401C608650463E
:101E700000F0A8FD0090002000990880009948809B
:101E80000098A0F804800098A0F8068000994948BE
:101E9000086149490098806A39400843009988627E
:101EA000684600F0A0FDE06B58B100F083FD83466A
:101EB000504600F07FFDDBF814104161CBF814A010
:101EC00001E0C4F83CA000215046FEF7E9FAB8064C
:101ED00044BF5046FFF730F8F80702D5A06D401C0C
:101EE000A065780644BF504601F0CDF9504600F099
:101EF00069FD00900099806A40F00200886268469F
:101F000000F071FD00215046FEF7B9FD012001905F
:101F1000CDF808A001A9504601F07CF901F0B5F810
:101F2000C6F800A06FF07040C9F8000000213068CA
:101F3000FEF7A5FD6D1C361D022D09F1040983DB9A
:101F40001E4F1F4E1F4D384602F060FA304602F019
:101F50005DFA284602F05AFA07F1080002F056FA34
:101F600006F1080002F052FA05F1080002F04EFAFC
:101F7000A069FEF7E1FF09490968012081F85400D2
:101F800084F831001048E06604F16C0002F09BF820
:101F900005B0BDE8F08F0000A08C0020B401002047
:101FA000BD150008AF310208971A0008DFBFFFFF18
:101FB000EC920020331D00089F3F3F0048030020A3
:101FC0005803002068030020FD1D000830B50A4DAD
:101FD00083B02968497C0446084850F82100C2684B
:101FE000126B6946904728686A462146083000F01F
:101FF000EDFD03B030BD00BFB4010020B8010020EA
:1020000062B38B0708D0521E11F8013B00F8013B68
:1020100000F024808B07F6D1830740F0208000BFBA
:10202000103A07D330B4B1E83810103AA0E83810AD
:10203000F9D230BC530724BFB1E80810A0E808105B
:1020400044BF51F8043B40F8043BD20724BF31F8A9
:10205000022B20F8022B44BF0B7803707047083A1C
:1020600007D3B1E80810083A40F8043B40F804CB25
:10207000F7D25307E4E7F0B40168446883680918AD
:1020800001EB5402E40748BF4B440C3091422BD083
:1020900011F8014B14F0030504BF11F8015BED1CAE
:1020A00026090F2E07D111F8016B0F3603E011F846
:1020B000017B03F8017B6D1EF9D1002EE6D0A40848
:1020C00011F8015B04F00304032C08BF11F8014B65
:1020D00005EB04241C1BB51CD8D014F8016B03F8C5
:1020E000016B6D1EF9D1D1E7F0BC704770B4416847
:1020F000DFF8744A5FF00F0304F1B80555F808697A
:10210000B14201D25B1EF9D5102B0ED22268511AB2
:10211000216004EBC30150F8082F4068443102B13C
:102120005060002814BF02600A6070BC7047000055
:10213000F0B5DFF8344A81B00546A06B0E46E16881
:102140000818AF19401EB84206D3386820B978681D
:1021500045193846FFF7CAFFA06BB0420AD256F8BD
:10216000040C371A386828B9786845193846FFF7DB
:10217000BDFF3E465FF00F0004F1B80151F8082999
:10218000954201D2401EF9D5102821D204EBC0009F
:102190000022416C3260756006F108021160A919D5
:1021A000366141F8045C50F8441F01B14A60116087
:1021B000002151600260206894F8291028182060DE
:1021C00031B9E168081AA168814238BF0146A160AF
:1021D000284601B0F0BD0000F0B581B08B080022A8
:1021E000002B054643D013F00307164600F00E807F
:1021F0004FF0FF0CB6FBFCFCCCEB0C2CA6EB0C045C
:102200007F1E45F8044B06F10106F1D19F082ED040
:102210004FF0FF0CB6FBFCFCCCEB0C2CA6EB0C043B
:1022200045F8044B4FF0FF0E741CB4FBFEFECEEBE2
:102230000E2EA4EB0E0445F8044B4FF0FF0EB41C19
:10224000B4FBFEFECEEB0E2EA4EB0E0445F8044BC1
:102250004FF0FF0EF41CB4FBFEFECEEB0E2EA4EBF3
:102260000E047F1E45F8044B06F10406D0D1064645
:102270000025174601E06D1C7F1C9D420ED24FF0D9
:10228000FF0EB7FBFEFE56F8044BCEEB0E2EA7EB6F
:102290000E0E7445EFD0032001B0F0BD521C022A8F
:1022A0009ED34C0800220027002C05464AD014F08B
:1022B000030C164600F011804FF0FF0EB6FBFEFE39
:1022C000CEEB0E2E7F1CACF1010CA6EB0E0E761C95
:1022D000BCF1000F25F802EBEED1A60832D0D719D9
:1022E0004FF0FF0CB7FBFCFCCCEB0C2CA7EB0C0C61
:1022F00025F802CB4FF0FF0E07F1010CBCFBFEFEF0
:10230000CEEB0E2EACEB0E0C25F802CB4FF0FF0EF1
:1023100007F1020CBCFBFEFECEEB0E2EACEB0E0C5E
:1023200025F802CB4FF0FF0E07F1030CBCFBFEFEBD
:10233000CEEB0E2EACEB0E0C761E25F802CB07F181
:102340000407CDD106460025174601E06D1C7F1C11
:10235000A54210D24FF0FF0EB7FBFEFECEEB0E2EC5
:1023600036F802CBA7EB0E0E1FFA8EFEF445EDD029
:10237000022001B0F0BD521C022A94D30022002694
:102380000029044643D011F00307154600F00F80E2
:102390004FF0FF0CB5FBFCFCCCEB0C2C761CA5EB3A
:1023A0000C0C7F1E04F801CB05F10105F0D11D00D6
:1023B0002DD09619FF27B6FBF7F7C7EB0727F71BBA
:1023C00004F8017B4FF0FF0C771CB7FBFCFCCCEB57
:1023D0000C2CA7EB0C0704F8017B4FF0FF0CB71C8B
:1023E000B7FBFCFCCCEB0C2CA7EB0C0704F8017B37
:1023F0004FF0FF0CF71CB7FBFCFCCCEB0C2CA7EB55
:102400000C076D1E04F8017B06F10406D2D10446C8
:102410000025164601E06D1C761C8D420DD24FF052
:10242000FF0CB6FBFCFC14F8017BB4445FFA8CFC97
:102430006745F0D0012001B0F0BD521C022A9ED3A6
:1024400009B102F00BF8002001B0F0BD10B5DFF8C3
:102450001847002084F828008022002104F1400061
:1024600002F004F8C0220021204601F0FFFF04F131
:10247000C000BDE810400C22002101F0F7BF2DE99B
:10248000F041DFF8E446E06A40B9D4F8C810D4F867
:10249000C4000831B0FBF1F0871C03E0206900EBB9
:1024A000D000071DF80000F0C5F85FEA000842D030
:1024B000616BE66A01EBC800406800F1080520691D
:1024C000C2002846FFF7ACFD206965637A1E904282
:1024D000C4F82C8001461BD2101A05EBC102121D54
:1024E00010F0030304D0491C5B1E42F8081BFAD10C
:1024F00080080DD0491C42F8081B491C42F8081BF3
:10250000491C42F8081B491C401E42F8081BF1D127
:1025100005EBC101002048602069216960622761E4
:1025200060683818401A606016B1304600F0D4FA7E
:102530000020BDE8F0810120BDE8F08110B5DFF892
:10254000284694F82800002873D1D4F8C41001203C
:1025500084F82800B1F5205F88BF4FF42051D4F8EB
:10256000C000FFF739FED4F8C80020B9D4F8C40081
:102570008008C4F8C800DFF8F405C4F8CC0004F102
:10258000CC0001F0A0FD5A20206204F1400100209F
:10259000102202FA00F341F8083B401C02FA00F353
:1025A00041F8083B401C02FA00F3401C41F8083B8C
:1025B0008240401C102841F8082BE9D302202061FA
:1025C000D4F8C010D4F8C400E0604218A163143AF3
:1025D000626300210020626B8218491C51602269ED
:1025E000521E914218D2626B8218491CD160226936
:1025F000521E914210D2626B8218491C51612269AD
:10260000521E914208D2626B8218491CD16120305F
:102610002269521E9142DED3012060622069A16BC3
:10262000401E6060E068FFF783FDFFF728FF012090
:10263000206310BD2DE9F04E86B00546FFF77EFF02
:10264000DFF82445206C854202D3E81C8008800016
:102650000C300090009920688842C0F09C80206B6C
:102660006168884209D3401E2063FFF708FF216B91
:10267000491C0028216340F08E806068616B401E19
:102680006060606A01EBC00252686262012201F878
:1026900030200028019000F07E80009800250F2156
:1026A00004F1B80252F80839984201D2491EF9D50E
:1026B000102913D204EBC1024432C1F11001136896
:1026C00033B19D682DB16B6883426BD2AB6843BB5D
:1026D00000250832491EF2D1002D60D10490A76B6D
:1026E000E068C019401E039038460168466800291A
:1026F0003DD1039AF119914239D289460291D9F814
:1027000004A0D9F8001091B3626B12F83120012AAD
:102710002DD1E26A91420CBF4FF0010B4FF0000B3C
:1027200006E09D68002DD4D06B688342CED339E09B
:10273000FFF7DCFC606BD9F8001000EBC1005246DB
:1027400047603846029901F015FFBBF1000F04D035
:10275000606B0299401A381860630AEB0701304633
:10276000FFF7E6FC049909B1884218D2564603984F
:10277000F7198742B8D360680199401C6060606BAC
:1027800000EBC100616A41600020616B019A01F8B1
:10279000320001986062002006B0BDE8F08E002D86
:1027A0003FF47BAF6E680098216C301A0C31884280
:1027B00038BF00962846FFF799FC606B019900EB43
:1027C000C100456000980199296068600021A960F6
:1027D0002D61411941F8040C0098B042BCBF301A79
:1027E000FFF7A6FC019806B0BDE8F08E30B1DFF827
:1027F0007813CA6B026002B15060C8637047000072
:102800002DE9F04B86B00446FFF798FEE01C8008E7
:102810008000DFF8545300F10408286C804538BF6D
:102820008046EE6B00E0366846B356F8040C40452F
:1028300011D0366816B356F8040C40450BD03668F4
:10284000E6B156F8040C404505D03668B6B156F8E6
:10285000040C4045E7D196B1306808B17168416019
:10286000706808B131680160E86BB04240F08F8059
:102870003068E86306B03046BDE8F08B0026AF6BE9
:10288000E868C0190190001F049004990198096834
:10289000441A206800285ED0E868C019401E0390E2
:1028A00039687A68002914464DD1039BE119994291
:1028B00049D2029148680090D1F800C0BCF1000FE5
:1028C00041D0686B10F83C0001283CD1E86A84458F
:1028D0000CBF4FF001094FF0000905924FF00F0CAB
:1028E00005F1B80E5EF808B95A4502D2BCF1010CE8
:1028F000F8D5BCF1100F0FD22868821A07F1080032
:102900002A6005EBCC0203684068443203B158608A
:10291000002814BF03601360686B0A6800EBC200F4
:1029200047603846009A01F025FEB9F1000F04D047
:10293000686B0299401A381868630098C1192046DC
:10294000FFF7F6FB009C0398E7198742A8D3049988
:1029500001980968441A2068C8B96068404516DBC8
:102960000019A0EB0800061D2046FFF7BFFBE86832
:10297000A0EB0800E8606869404468616068B0EBFB
:1029800008001CBF2146FFF7D3FB46F8048C3046F5
:1029900006B0BDE8F08B10B5040001D1002010BDD9
:1029A00000F07BFB2046FFF745FE044600F06DFB80
:1029B000204610BD28B16C49496B01EBC00040684E
:1029C000083070476849CA69521CCA614A6B02EBF9
:1029D000C00213785B1C137020B1496B01EBC0007F
:1029E00040680830704703685F4953F8083C4A6BF9
:1029F00002EBC3021378022B03DBCB690BB15B1E26
:102A0000CB611178491E11700021016000207047D0
:102A100010B5FFF793FD544A00240F2102F1BC03C7
:102A200053F8080968B102EBC100406C806850B1EE
:102A300041688C4238BF0C46806820B1806810B174
:102A4000F6E7491EECD5A4F10C0010BD10B500F05E
:102A500024FBFFF7DDFF4449096AB0F5800F05D973
:102A6000642290FBF2F001FB00F403E04843642190
:102A7000B0FBF1F400F009FB204610BD3A48816933
:102A8000491C8161704738488169491E81617047DE
:102A9000354AC2F8C00088088000C2F8C4007047F8
:102AA0001128314908D3D1F8C420B0EB520F04D318
:102AB0005008C1F8C80070471020C1F8C80070471E
:102AC000002138B12849496B01EBC00040684068DB
:102AD000A0F10C010846704730B5040081B01FD04A
:102AE00000F0DBFA204D686B10F8341099B1022920
:102AF00011DA00EBC40041684868FFF719FB686809
:102B0000696A401C6860686B00EBC4025160002178
:102B100000F834106C6201B0BDE8304000F0B5BA86
:102B200001B030BD10B5044600F0B7FA2068FFF7D9
:102B3000D3FF00202060BDE8104000F0A6BA0000DE
:102B400070B50D460026012D04460CDB00F0A5FAF9
:102B50002068FFF7C1FF002044F8040B761C00F04A
:102B600094FAAE42F2DB70BD708300204D24000861
:102B700058B10388CB1803808388C91881804188A5
:102B800051184180C1885118C1807047B1F90020A7
:102B9000B0F900309342B8BF0280B0F90220B1F919
:102BA00002309A42B8BF1A464280B0F90430B1F9F7
:102BB00004209A42C8BF1A468280B0F90630B1F9A3
:102BC00006209A42C8BF1A46C2807047B1F9003049
:102BD000B2F900C09C45A8BF63460380B1F902C0AA
:102BE000B2F902306345B8BF63464380B2F904C00E
:102BF000B1F904306345C8BF63468380B2F906C0AB
:102C0000B1F906306345C8BF6346C380B0F904100C
:102C1000B0F900209142A2BFB0F90610B0F902004D
:102C20008142B4BF00200120704700B9704710B442
:102C300081B019B31AB3B2F90030B1F900409C4227
:102C4000B8BF23460380B2F90240B1F90230A34273
:102C5000C8BF23464380B1F90440B2F90430A3420F
:102C6000B8BF23468380B1F90640B2F90630A342CB
:102C7000B8BF2346C38001B010BC7047114601B0F5
:102C800010BC0822FFF7BCB903480068010018BF58
:102C900000477047000000000893002010B50400B2
:102CA00007D000F0FAF92046FFF784FEC46900F06F
:102CB000ECF9204610BDC1B200F47F4242EA014166
:102CC000C0F30742114300F07F404FF07F42504075
:102CD00008437047F0B581B004460D461646FFF72D
:102CE00071FE00901621009A1268D268526A002084
:102CF000904707466846FFF776FE380003D0324615
:102D000029462046B84701B0F0BD2DE9F14FDFF864
:102D1000F00284B00068DDF840801E46437C0F98C6
:102D2000894693460022414601F05BFA00270400E1
:102D300049D020698068804701F0D3FD82460AFBB4
:102D40000BF0C01DC0080290FFF780FE0E9DE90742
:102D500005D4411000EB9170801000EB4000012E73
:102D60000BDA029900291ABF1838B0FBF1F00020E5
:102D700071420E468642C8BF0646E80707D404984B
:102D8000009733465A46494601F08AFE0746012E0F
:102D900006DA204601F023FA002005B0BDE8F08FE6
:102DA000029870431830E90702D5FFF7F4FD01E0FF
:102DB00000F050FA05000AD1204601F010FA17B1D0
:102DC0003846FFF789FE002005B0BDE8F08FFFF719
:102DD000F9FD019004600199049888800198A0F899
:102DE00006900198A0F808B00198468101990298D0
:102DF000C8600198C0F810A00198476101A8FFF7CA
:102E0000F2FDC4F81080A5607D480068407CA06198
:102E100005B02846BDE8F08F30B581B004460025E6
:102E20008CB100F03AF92046FFF7CCFD0090006825
:102E300000698068804701F054FD05466846FFF749
:102E4000D2FD00F022F9284601B030BD10B50400D3
:102E500082B01CD000F021F969480068006EA042E1
:102E600008BF01F05DFE2046FFF7ACFD0090406911
:102E700008B101F065FE0098006801F0B0F96846FD
:102E8000FFF7B1FD2046FFF727FE00F0FEF802B085
:102E900010BD2DE9F04784B00446884691469A4615
:102EA00000F0FBF8564857490068407C51F8207004
:102EB0000026F9680968042903D03F68002FF8D17B
:102EC00000E01FB901F06AF907001DD0FA68D26A64
:102ED000012138469047050013D03F690C9EB86821
:102EE000804710F1010F04BF474F46F001060297DB
:102EF0000195009653464A4641462046FFF705FF96
:102F0000064600F0C2F8304604B0BDE8F08770B560
:102F100082B0044600F0C1F8394D2868066E14B935
:102F200001F0FEFD15E00EB101F0FAFDFEF733FFF2
:102F30002046FFF747FD0090286804660098006867
:102F400001F095F96846FFF74EFD01F029FE00F00B
:102F500099FD00F09AF8304602B070BD2DE9F043BB
:102F6000040083B047D000F098F8002001F02AFE5A
:102F7000054623480068066E2046FFF723FD0090B3
:102F80000068806900F035FA074600980099B0F9AA
:102F90000480B0F90690ADF80480BDF804000989FA
:102FA000ADF806900818401E0099ADF80800498950
:102FB000BDF806000818401EADF80A00FEF7E5FE51
:102FC0006846FFF710FD01A8FEF7E3F940B14A4655
:102FD0004146204602F08EF9FEF78CF90028F6D122
:102FE000384600F006FA3046FFF791FF284601F018
:102FF000E9FD00F04AF803B0BDE8F08300000000EE
:10300000B4010020B801002058430208B1F906209D
:10301000B0F902309A42A2BFB0F90620B1F90230ED
:103020009A420DDBB1F90420B0F900309A42A2BFF8
:10303000B0F90400B1F90010884201DB01207047AB
:103040000020704730B581B000246F4D00E0641C53
:10305000E86884420EDA02F0A5F9C4EB04112A688C
:10306000C9008B58834202D0002BF0D188502046F3
:1030700001B030BD002001B030BD10B5624C2068F9
:10308000FFF7B4FB0020206010BD5F480169491EB6
:10309000016108BF02F07FB9704730B55A4C81B06A
:1030A000206920B102F07EF9A168814204D002F0CB
:1030B00067F902F077F9A0602069401C01282061BF
:1030C0001BD1FFF7BFFF05466068854215D0002879
:1030D00012D40020C04662682168C2EB021301EBE3
:1030E000C3025067C5EB051001EBC000474A011D44
:1030F0001160406F01F02AF9656001B030BD30B554
:10310000414C434881B0606104F1140000F0DBFFE2
:10311000E068C0EB0011CD002846FFF771FB20608E
:103120002A46002101F0A2F94FF0FF30606002F062
:1031300019F901B0BDE8304084E7F0B5324C81B0F8
:10314000E768012F44DB2568304EF80711D5316858
:10315000281D7022FEF764FF0020286005F10C0096
:10316000A861281DE86305F108002864281D68642B
:1031700078357F082CD03168281D7022FEF750FF6B
:1031800000202860702205F10C00A861281DE8636A
:1031900005F108002864281D686405F17C00316889
:1031A000FEF73EFF0020A8677F1E05F18400C5F8EA
:1031B000900005F17C00C5F8B40005F18000C5F869
:1031C000B80005F17C00C5F8BC0005F1F005D2D1CE
:1031D000002500E06D1CE06885420CDA02F0E2F8A0
:1031E000C5EB05112268C9008B58834204D0002B1F
:1031F000F0D1885000E00021206808180349001D24
:10320000086001B0F0BD0000A8020020B401002059
:103210007B30000870B50E4C0546206814280E4619
:1032200014DA2846FFF7C6FB01697560080008D06C
:103230002068401C2060304688472068401E20607F
:1032400070BD3046BDE87040FEF7B5BD70BD00BF33
:103250000C93002030B581B00446FFF71EFF2046D6
:10326000FFF799FB050009D0FFF7ACFB0090224661
:10327000002101F0FBF86846FFF7B5FBFFF705FFFB
:10328000284601B030BD2DE9F04186B00446FFF775
:1032900004FF002C3AD02046FFF794FB009003A8CF
:1032A00000990822FEF7ACFE0098056A866A684617
:1032B000FFF799FB204602F093F8070026D020463E
:1032C00002F0A3F88046B00704D52A46414603A879
:1032D000FDF729FA2046FFF775FB00904046FFF7FF
:1032E00071FB01903846FFF76DFB02900562019873
:1032F0000099C06908620198C4616846FFF773FBD2
:1033000001A8FFF770FB02A8FFF76DFBFFF7BDFEFA
:1033100006B0BDE8F0818268521C8260426832B11A
:103320000268531C036011704168491E4160704778
:1033300070B582B00446FFF7B0FE684602F098F818
:1033400003E06946284602F0A7F8054645B3012187
:10335000284602F0F3F80099002918BF0028F0D0A1
:103360000846FFF727FB4068A042EAD1009E694665
:10337000284602F091F8002E0546E7D0FFF78DFEB3
:103380003046FFF71FFB0190006802F0A1F801A88A
:10339000FFF729FB3046FFF79FFBFFF776FED5E7E7
:1033A000FFF773FE02B070BD00B585B02622039111
:1033B0000092694600F0DCFE05B000BD0021022845
:1033C0003CBF174951F820100846704770B50446B5
:1033D0000D461646FFF761FE32462946204602F0AA
:1033E00046F910B1002028603060BDE87040FFF75A
:1033F0004CBE70B50B4D04462868467CFFF74DFE69
:10340000022C09D2204600F0C9FE28B12868447475
:1034100001F086FB04480460FFF737FE304670BDBC
:10342000E8910020B4010020D88C002070B504463B
:103430000D461646FFF731FE32462946204602F079
:10344000E4F80446FFF721FE204670BD10B5DFF812
:103450009C4721684A6B82420FD04863DFF890276F
:10346000497C52F8211009690968884721680A7C5B
:1034700052074CBFC96B896B086010BD10B5DFF8EF
:103480006C4721680A6B82420FD00863DFF860271F
:10349000497C52F8211009690968884721680A7C2B
:1034A00052074CBF896BC96B086010BD70B4DFF860
:1034B0003C170A68117C80EA01035B0705D5936B12
:1034C000D56B1C682E681E602C601074084670BC9A
:1034D0007047DFF82017096889680847DFF80C276C
:1034E0001268B2F90A30994200DA704730B581B0FB
:1034F000B2F90E308B42A1BFB2F908309842B2F94E
:103500000C30834217DBDFF8E836547C53F8244054
:10351000137CE568DB0707D50A46EB6901462046C0
:1035200001B0BDE830401847D26B13680A46014627
:103530002046AC69A04701B030BD10B5DFF8AC360D
:103540001B68B3F90A40A142A4BFB3F90E408C42F4
:1035500017DBB3F90840A042B8BF2046B3F90C40CE
:103560009442B8BF224682420BDBDFF884465B7C84
:1035700054F8234013460A4601462046E468A468EE
:10358000A04710BD10B5DFF864361B68B3F90840DA
:10359000A042A4BFB3F90C40844217DBB3F90A4040
:1035A000A142B8BF2146B3F90E409442B8BF2246AB
:1035B0008A420BDBDFF838465B7C54F82340134625
:1035C0000A4601462046E468E468A04710BD30B5CD
:1035D000DFF8184681B02468B4F90850A842B8BF93
:1035E0002846B4F90C509542B8BF2A46824218DBEF
:1035F000B4F90A50A942B8BF2946B4F90E509D4209
:10360000B8BF2B468B420CDBDFF8E455647C55F8E1
:103610002440009313460A4601462046E468246984
:10362000A04701B030BD00002DE9F54FDFF8C80517
:1036300087B00668149C179D86B11698089A049066
:103640000294059515980390139801901298009094
:1036500034680798A04709B0BDE8F08F5818421E9B
:103660000798089E3018471E1298139E3043012871
:1036700061D1DFF878653068B0F90AC0ACEB0106BB
:10368000012E0BDB9B1B012BC0F2D7806146DDF8BE
:1036900058C0DDF854E00EFB06C61696B0F90E6071
:1036A000961B012E03DB9B1B012BC0F2C680B0F9D9
:1036B0000C20BA1A012A02DB089EB21A0892189A44
:1036C000079EB61A0796B0F90870DDF81CC0BC4515
:1036D000164616DABE19A6EB0C06DDF820C0ACEBD8
:1036E0000707DDF81CC067440897B21A169F07EB5E
:1036F000E607169722F00702079FD219079206F0F5
:103700000706089A012AC0F29880DFF8E424407C7A
:1037100052F82000169A039201940595049600939E
:10372000159A089B02920A46C46807996468A047E4
:1037300009B0BDE8F08FC4F10800012B059001919C
:103740007BDB0293DFF8A464139801990818401EEC
:10375000039030680399B0F90A209142A2BFB0F9F2
:103760000E00019988425CDB1698079F0490089828
:10377000012856DBDDF8208003E000BFBAF1000F1E
:1037800006D10498401C04904FF0080A10F8019DDF
:1037900005985FFA89F232FA00F1306802FA04F90A
:1037A000AAEB040A02D1027C920735D4C26BD2F88C
:1037B00000B00DB155F8211011601299B0F908E070
:1037C000DDF80CC0019A79184B1E39467145B8BF17
:1037D0007146B0F90CE09E45B8BF73468B4217DBCB
:1037E000B0F90AE07245B8BF7246B0F90EE0E6459E
:1037F000B8BFF44694450BDBDFF8F4E3407C5EF899
:103800002000CDF800C0D0F80CC0DCF810C0E047B4
:103810003068C06BC0F800B01298C719B8F1010841
:10382000ACD10198139908180190159916980818A9
:1038300016900298401E029086D109B0BDE8F08F24
:103840002DE9F44F0446DFF8B00386B00668149DF6
:103850008EB11598069A05900495139803901298C6
:103860000290119801901098009020463468A0476B
:1038700007B0BDE8F08F1219571E109A119E581804
:10388000401E3243012A40F07C80D84E3268B2F9A3
:103890000AC0ACEB0106012E08DB9B1B012BC0F21A
:1038A000EE806146DDF84CC00CFB0655B2F90E60A7
:1038B000861B012E03DB9B1B012BC0F2E080B2F9BB
:1038C0000C00381A012802DB069E301A06900026EA
:1038D000B2F9080084423ADA061B0698801B06906B
:1038E0001298401E1F2832D8DFE800F0101831204F
:1038F00031313128313131313131312A31313131C8
:103900003131312D313131313131312D05EBE60598
:1039100026F00700041906F0070618E005EBA605D7
:1039200026F00300041906F0030610E005EB660517
:1039300026F00100041906F0010608E0751904E0FC
:1039400005EB460501E005EB8605341900260698CF
:103950000128C0F29480A648527C50F82200159AA3
:103960000592049603950093139A069B0292129A6D
:1039700001920A462146C4686468A04707B0BDE8C2
:10398000F08F1298C0F10800012B0590019176DBB1
:103990000293964E119801990818401E03903068C2
:1039A0000399B0F90A209142A2BFB0F90E00019923
:1039B0008842A1BF0495A1460698012855DBDDF891
:1039C000188002E0BAF1000F06D10498401C049060
:1039D0004FF0080A10F8017D0598FFB227FA00F1B0
:1039E00012988740AAEB000A306811B9027C92074E
:1039F00036D4C26B159BD2F800B00BB153F821102E
:103A000011601099B0F908E0DDF80CC0019A494442
:103A10004B1E49467145B8BF7146B0F90CE09E4552
:103A2000B8BF73468B4217DBB0F90AE07245B8BFE6
:103A30007246B0F90EE0E645B8BFF44694450BDB9C
:103A4000DFF8ACE1407C5EF82000CDF800C0D0F893
:103A50000CC0DCF810C0E0473068C06BC0F800B0A4
:103A6000B8F1010810988144ACD101981199081857
:103A70000190139845190298401E02908AD107B010
:103A8000BDE8F08F5948016859484A7C50F8220037
:103A9000C268126B0831104770B5544882B0016893
:103AA00053484A7C50F82200C268126B0831904794
:103AB00001F018FE040022D1002000F06FFB0090FE
:103AC00050B1009AD268526A0C21684690470100B2
:103AD0000FD0009888470446012000F05FFB00905B
:103AE00068B1009AD268526A0C216846904701007A
:103AF00002D1012002B070BD009888470443002C19
:103B000044D101F04FFE012000F048FB43F6FF7561
:103B1000384E0090D0B10120FFF76BFC3168896806
:103B2000042088472B462A4600210020FFF74FFD3E
:103B30003168896800208847009AD268526A0E214D
:103B40006846904701001CBF00988847002000F09D
:103B500025FB0090D0B10020FFF74BFC316889684D
:103B6000042088472B462A4600210020FFF72FFD1E
:103B70003168896800208847009AD268526A0E210D
:103B80006846904701001CBF00988847204602B055
:103B900070BD164A16491268527C51F82210096904
:103BA00009680847114A12491268527C51F82210DC
:103BB0000969496808470D4909680A7C52074CBFE2
:103BC000896BC96B08607047084909680A7C52070D
:103BD0004CBFC96B896B0860704706490968496822
:103BE000084704490968096808470000B401002033
:103BF000B8010020D4010020FC92002030B581B033
:103C000004460D46FFF749FA2946204601F010FE0A
:103C100001B0BDE83040FFF738BAC1B200F47F42CE
:103C200042EA0141C0F307400843704700B581B044
:103C3000002000F0BFF86FF07F4000F0C6F80120D0
:103C400001F01EFE002001F039FE002001F048FEC8
:103C5000002000F0B7FF0548006801F053FE01B0F6
:103C60005DF804EB002001F05FBE0000B001002011
:103C70000F498A6802B98860FFF706B810B5FFF7E8
:103C80000CFA0B4A13685068002483420CD0186861
:103C9000596802F16004A3420CBF02F1100308331B
:103CA0001360012401F050FEFFF7EFF9204610BD2C
:103CB000C8020020F0B507460124022F81B00E464D
:103CC0005DDA334D6A6810001CBF38469047AEB3CA
:103CD000022E1BD053D205EB87063069A0B93846B7
:103CE00000F05CFA0028009049D0009AD268526A2D
:103CF0000D2168469047020041D00098012190476D
:103D000030690024401C39E0401C37E0384600F0A0
:103D100045FA009098B3009AD268526A0D2168461D
:103D2000904706002BD02868010018BF80470098F4
:103D30000221B0470024204601B0F0BD05EB870604
:103D40003069012814D1384600F028FA009078B183
:103D5000009AD268526A0D2168469047070007D042
:103D60002868010018BF804700980021B847002448
:103D70003069411E8941C943A0EBD17030612046B2
:103D800001B0F0BD014603480068407C92E70000A6
:103D9000E4900020B4010020054909687022FEF774
:103DA0003FB90146024800687022FEF739B90000A9
:103DB000B401002010B50446FFF76FF92046FFF765
:103DC0000CFFBDE81040FFF760B910B50446FFF7DF
:103DD00064F92046FFF705FFBDE81040FFF755B92D
:103DE0002DE9F04F83B007468A4693469846FFF781
:103DF00054F94F480068457C4E482856022828460A
:103E000006DB00F004FC8146284600F00EFC05E0CD
:103E100000F019FC8146284600F023FC054617B344
:103E200001A902A801F0B0FDB7F90040002CB8BF0D
:103E30000024B7F90260002EB8BF00260298B7F937
:103E400004104844401E8842C8BF08460199B7F98B
:103E500006206918491E9142C8BF1146001B421C2A
:103E6000881B451C02E0002400264A46B8F1000FDA
:103E700008BFC5F10008012AA8BF012D4FDB0C982F
:103E80000090434631462046FFF703F85FEA0009F9
:103E900007D15846D047FFF7F8F8012003B0BDE836
:103EA000F08F01F089FD8046A8451FBF20480068BB
:103EB000806C00281CBF322101F0BAFC4846FFF795
:103EC00026F80027E91B4145BCBF484601F090FD9C
:103ED0003FB1BA192146484601F0A8FD484601F015
:103EE000DFFD5846D0471148016808001CBF00207C
:103EF00088474846FFF732F84744AF42E2DB48467E
:103F0000FEF7A4FF0020FFF702F8A8451FBF0848EE
:103F10000068806C00281CBF332101F089FCFFF78A
:103F2000B4F8002003B0BDE8F08F00000493002037
:103F3000B40100204893002010B5664C0020C4F85E
:103F4000940070220021204600F090FA04F18800CD
:103F5000BDE810400822002100F088BA5E490860E0
:103F600070472DE9F04182B00021002001F0BCFD36
:103F7000FFF793F80420FFF7ACFA80465548574AFC
:103F8000D0F88400C16C006D5518161843F6FF7206
:103F900057181418ADF80050ADF80470ADF8026071
:103FA000ADF806406846FDF7F4F948B123463A46B5
:103FB00031462846FFF70BFBFDF79CF90028F5D1A9
:103FC0004046FFF786FAFFF760F802B0BDE8F081DF
:103FD00070B5444801684908490001600121424820
:103FE00081604249016000684149884200D0FEE793
:103FF000384CD4F8940088B90120C4F8940001F03A
:1040000085FDFFF77CF802F013FD35482067D4F8F2
:104010009000606704F17000C4F890002E2084F8CE
:10402000780001F0C6F9D4F88400011DC1638063F3
:10403000006400F10801616104F10801407C04EBB7
:104040008000D0F88800C268126B90470FF2A80079
:104050006066D4F88000E061D4F8840008306061C4
:104060000120207602F07CFEA064032084F8680022
:104070006FF07040206360630020FFF7AEFD6FF0CB
:104080007F40FFF7AEFD1B48E067FFF756F8FFF7EC
:1040900003FD054600F0DEFB10B100F0DEFB38B991
:1040A00000F0ACFB064600F095FB314600F0CEFB7D
:1040B0000021002002F060FEFDF7AFFE012084F831
:1040C0007900284670BD0349D1F890204260C1F8BC
:1040D0009000704730010020C801002001C0FFFFA0
:1040E000393F0008002000E000300240C2A507F47C
:1040F000CDB5E8B5544102083B350008DD34000871
:1041000010B582B00C46002818BF002C08D0FEF76E
:1041100059FC00902146FCF7A6FC6846FEF763FCBC
:1041200002B010BD30B581B00446FEF7B6FF0E48B0
:10413000056815B90D480068856CFEF7AEFF002DC7
:1041400018BF002C09D02846FEF73CFC0090214601
:10415000FCF789FC6846FEF746FCFEF796FFFEF783
:1041600094FF01B030BD0000FC8C0020B4010020A1
:1041700030B50D0081B004460ED0FEF78EFF20460C
:1041800001F043F918B1AC602946FFF743F801B0DC
:10419000BDE83040FEF779BF01B030BD022801DB39
:1041A00000207047974951F8200000E00068A8B14E
:1041B000C168096891B1006800280FD0C16809681A
:1041C00061B10068002809D0C168096831B1006890
:1041D000002803D0C16809680029E7D17047FEF7BD
:1041E00005BBF0B51E46022E81B004460F461546AB
:1041F00003DA1C20FEF704FB10B9002001B0F0BD6B
:104200000FB1076115E07F4951F8261089B10A689E
:104210006AB109680A6852B111460A683AB1114692
:104220000A68002A03D011460A68002AF1D10969F8
:10423000016186618582C460002101604160816006
:1042400001B0F0BD81696F4A52F82130834204BF4A
:10425000036842F82130416809B102680A600168C8
:1042600009B142684A60002101604160704770B442
:1042700000284CD081690C46022C48DA614A52F879
:10428000243013B942F8240049E05C680CB35B6841
:104290005C68ECB123465C68DCB123465C68C4B161
:1042A00023465C68002CF2D113E01B687BB3DE6808
:1042B0003668B54213DA1B684BB3DE683668B54220
:1042C0000DDA1B681BB3DE683668B54207DA1B6877
:1042D000EBB1C468DE6825683668B542E5DBDE68A8
:1042E0003668AE420AD1858A2668012D06D11D683E
:1042F00025B12B46DD682D68B542F8DA5C68002CE4
:104300001DBF20605968416042F8210002E070BC86
:10431000012070475860984208BF002303600020C6
:1043200070BC704730B581B01C46FFF75AFF0500DE
:1043300009D0FFF79CFFE868006820B932480068A0
:1043400000EB84008565284601B030BD2D4900B9D9
:104350007047F0B4026800284FD083691D46022DD3
:104360004BDA51F8254014B941F8250045E065685D
:104370000DB364686568EDB12C466568DDB12C4607
:104380006568C5B12C466568002DF2D113E024683C
:104390009CB3E7683F68BE4213DA24686CB3E768F1
:1043A0003F68BE420DDA24683CB3E7683F68BE420E
:1043B00007DA24680CB3C568E7682E683F68BE4218
:1043C000E5DBE7683F68B7420AD1868A2F68012E8D
:1043D00006D1266826B13446E6683668BE42F8DA69
:1043E0006568002D1DBF28606368436041F82300A5
:1043F0006060A04208BF002404601000AAD1F0BC95
:1044000070470000B8010020B401002012490A687A
:1044100002600860704710490A68E2B100238242D6
:1044200006D113B1106818607047106808607047B3
:10443000134612687AB18242F4D01346126852B120
:104440008242EFD0134612682AB18242EAD0134664
:104450001268002AE3D17047E08C0020002202F0AD
:10446000B1BC0268531C03601170704770B402E065
:1044700000F8011B521EBAB110F0030314D000F86B
:10448000011B521E18BF10F003030DD000F8011BD2
:10449000521E18BF10F0030306D000F8011B521E75
:1044A00018BF10F00303E3D193084FD04FF001344D
:1044B0004C43042B02F0030238DB5D0803EB9575D7
:1044C000AD0815F003060AD040F8044B40F8044B41
:1044D0001B1F40F8044B761E40F8044BF4D1AD0886
:1044E00000F0238040F8044B40F8044B40F8044BA4
:1044F00040F8044B40F8044B40F8044B40F8044BA0
:1045000040F8044B40F8044B40F8044B40F8044B8F
:1045100040F8044B40F8044B40F8044B103B40F883
:10452000044B6D1E40F8044BDCD17BB15B1E40F8A0
:10453000044B0BD05B1E40F8044B07D05B1E40F8C9
:10454000044B03D05B1E40F8044BEFD17AB1521EEE
:1045500000F8011B0BD0521E00F8011B07D0521EA1
:1045600000F8011B03D0521E00F8011BEFD170BCF4
:104570007047200081423ABF53189842FDF740BD72
:104580008018990707D0521E24BF13F8011D00F8A8
:10459000011DF6D8704781071CD1103A07D330B4FB
:1045A00033E93210103A20E93210F9D230BC10321F
:1045B000121F24BF53F8041D40F8041DF8D838BF5B
:1045C000121D521E24BF13F8011D00F8011DF8D85A
:1045D000704700BF083A07D333E90210083A40F8A1
:1045E00004CD40F8041DF7D20832EAE730B50025C3
:1045F000022881B00C4607DAFFF7D0FD20B1C2686F
:10460000926A214690470546284601B030BD10B554
:104610000024022807DAFFF7C1FD20B1C268926AC0
:10462000012190470446204610BD10B50024022801
:1046300007DAFFF7B3FD20B1C268926A0221904702
:104640000446204610BD10B50024022807DAFFF703
:10465000A5FD20B1C268926A032190470446204616
:1046600010BD10B50024022807DAFFF797FD20B12E
:10467000C268926A042190470446204610BD10B5D6
:104680000024022807DAFFF789FD20B1C268926A88
:10469000082190470446204610BD10B5002402288A
:1046A00007DAFFF77BFD20B1C268926A09219047C3
:1046B0000446204610BD10B50024022807DAFFF793
:1046C0006DFD20B1C268926A0C21904704462046D5
:1046D00010BD10B50024022807DAFFF75FFD20B1F6
:1046E000C268926A0D2190470446204610BD10B55D
:1046F0000024022807DAFFF751FD20B1C268926A50
:104700000E2190470446204610BD10B5554800685C
:10471000407C0024022807DAFFF740FD20B1C26880
:10472000926A012190470446204610BD10B54D48BD
:104730000068407C0024022807DAFFF72FFD20B133
:10474000C268926A022190470446204610BD10B507
:1047500044480068407C0024022807DAFFF71EFD69
:1047600020B1C268926A082190470446204610BDD5
:104770003C480068407C092138E73B4951F820005B
:10478000C268926A082110470246374B03EB820049
:1047900053F82220D268526A104700B5314881B0E0
:1047A0000068407CFFF7FAFC30B1C268D26A01B001
:1047B0005DF804EB0221104701B000BD2A4951F811
:1047C0002000006940687047274951F820000069BF
:1047D0000068704770B5002401252846FFF7DEFC0D
:1047E000002620B1C268926A012190470646B44271
:1047F000B8BF34466D1EF0D5204670BD70B500249C
:1048000001252846FFF7CAFC002620B1C268926A3B
:10481000022190470646B442B8BF34466D1EF0D51B
:10482000204670BD70B5002401252846FFF7B6FC70
:10483000002620B1C268926A032190470646B4421E
:10484000B8BF34466D1EF0D5204670BD074A1060D3
:1048500051607047054800687047044840687047D9
:1048600000000000B4010020B8010020B891002031
:10487000B0B34108490001D1012070478108890087
:1048800001D102207047C108C90001D1032070473F
:104890000109090101D1042070474109490101D1F1
:1048A00005207047010A090201D108207047410A1A
:1048B000490208D0010B090305D0C10BC90302D07E
:1048C000010C090401D110207047810C890401D129
:1048D0001220704710F07F4F01D118207047202020
:1048E000704710B5FFF7C4FF0024012808BF01245A
:1048F0000ED0811E072938BF082409D3A0F1090171
:10490000082938BF102403D31138102838BF2024B9
:10491000204610BDB0F90030C91AB0F90230D21AE1
:10492000036903FB020000EBE100802310F8142F61
:1049300001F00701CB4043EA02010170704770B5F6
:10494000B0F90040091BB0F90440A1422DDAB0F9DA
:104950000240121B0469CD1004FB0200281800F16C
:1049600014045818401EC5EBE00500F00700C0F124
:104970000700FF2201F0070102FA00F6207822FA70
:1049800001F3F6B21DB906EA030108430CE06D1EFF
:104990001843012D04F8010B04DB2946204602F0E0
:1049A0000DFA2C1920783043207070BDB0F9061034
:1049B000026951431430FFF751BD000070B4B0F9E3
:1049C00006500B68B0F90440AA421BDA0669DD10F4
:1049D00006FB020028181430A34213DA621EC5EB4E
:1049E000E20210F8014B03F00705AC4006E000BFFF
:1049F00010F8014B0833521E23F00703E4B224B928
:104A0000002AF5D170BC0020704725060FD4640041
:104A10005B1C25060BD464005B1C250607D46400D0
:104A20005B1C250603D464005B1C2506EFD5E4B2AD
:104A3000FF2C10D066061D460ED56D1CA6060BD5A4
:104A40006D1CE60608D56D1C260705D524016D1CD6
:104A50006606F2D400E0DD1D05F00704072C18D12E
:104A6000521E16D410F8014BFF2C03D10835521EEC
:104A7000F8D50EE020060CD56D1C600609D56D1C1E
:104A8000A00606D56D1CE00603D524016D1C20068A
:104A9000F2D40B60E81A70BC401C7047FEF71CB8DB
:104AA0002DE9F0430446164606F10F000011984622
:104AB000470007FB08F081B00D461430FEF7CAFB33
:104AC0005FEA00091CD0FEF7E8FA4846FDF77AFFD6
:104AD0000090048000984580009886800098A0F897
:104AE000068000990FF220008860012000998881DB
:104AF000009807616846FDF776FFFEF7C6FA48465C
:104B000001B0BDE8F0830000154900083F490008E6
:104B1000AD490008000000009D4A0008BD4900089A
:104B200000B581B0FEF7B9FA02F07CF900F038F870
:104B3000FDF72BF901B05DF804EBFEF7A6BA2800EB
:104B400030B581B00446FEF7A8FA2046FDF73AFFDB
:104B500000908089451E009885816846FDF743FFD7
:104B60002DB215B92046FDF7B7FFFEF78EFA01B05A
:104B700030BD00002DE9F041069F04460D46164663
:104B80004FEA0308D4F808C0DCF804C043463246B4
:104B900029462046E047761C7F1EF3D1BDE8F08110
:104BA00010B5074C2068006BFEF7F3FFFFF703F822
:104BB0002068406BFEF7EDFFBDE81040FFF704B83A
:104BC000B401002010B50446FEF767FA2046FEF750
:104BD00080FC0446FEF759FA204610BD2DE9F24F3D
:104BE00017460FF2547196B081460CC914A8DFF82D
:104BF000FC560CC04846FDF7E5FE0E904669C068BD
:104C00000B900E98006909900E98B0F908000F906B
:104C10000E98B0F90A0010900E9800680069446878
:104C20002868407CFFF7A9FD0A902868407CFFF7C0
:104C3000C5FD80460EA8FDF7D6FE0998092806D2C4
:104C4000012013900998012806D114A805E0112825
:104C50002CBF042002201390002044450D9000F04A
:104C600007812868407CFFF7AFFD05460F9880005C
:104C7000FDF791FE0028129000F0AB81484602F04B
:104C8000F3F8002E814600F0DC803046FDF79AFEF6
:104C90000890002610980128C0F2CF8011970020BC
:104CA00007903246089883685B6907A99847804651
:104CB0000F9880453AD11298FDF784FE0C90CA46B1
:104CC00009980C9F00970928C34609D33AF8020BAC
:104CD000A047A847BBF1010B47F8040BF6D108E049
:104CE0001AF8010BA047A847BBF1010B47F8040BCA
:104CF000F6D10A98202804D202460098414602F0D4
:104D0000CBF80D980F9A1199059001230C980490F7
:104D1000002003900A9802900120019000901698BC
:104D2000FEF78EFD0CA8FDF75EFE7CE009980128D9
:104D30002BD1B8F1000F76D00798079900F0070043
:104D4000069001230D98059042460798801001EBCC
:104D5000507009EBE00004900B981199039001202A
:104D6000029001900090079F16983844FEF75CFC73
:104D70000798404407903246089883685B6907A902
:104D800098475FEA0008D7D14DE0B8F1000F4AD04C
:104D90001298FDF717FE0C90C346079813990C9FC5
:104DA00001FB009A09980097092809D33AF8020BE9
:104DB000A047A847BBF1010B47F8040BF6D108E068
:104DC0001AF8010BA047A847BBF1010B47F8040BE9
:104DD000F6D10A98202804D202460098414602F0F3
:104DE0005BF80D981199059001230C9804904246A8
:104DF000002003900A980290012001900090079FE4
:104E000016983844FEF71CFD0CA8FDF7ECFD07983A
:104E1000404407903246089883685B6907A9984721
:104E20005FEA0008B4D10B9881441198401C11909E
:104E3000761C10988642FFF632AF08A8FDF7D3FD26
:104E400010E00D98109B0F9A0590CDF81090394600
:104E50000B980390099802900120019000901698F9
:104E6000FEF7EEFC1298FDF737FE17B0BDE8F08FA5
:104E7000484601F0F9FF002E814600F09980304647
:104E8000FDF7A0FD0890002610980128C0F28A8046
:104E9000002007903246089883685B6907A9984705
:104EA00080460F98804522D1344600E02E4608986F
:104EB00083685B69751C2A4607A998474045F5D069
:104EC000301B451C0D980F9A0590CDF810902B467D
:104ED0000B980390E119099802900120019000902D
:104EE0001698FEF7ADFC0B9800FB059955E0099864
:104EF00001282BD1B8F1000F4DD007980799079CD6
:104F000000F00700069001230D980590424607988F
:104F1000801001EB507009EBE0000490F1190B9840
:104F20000390012002900190009016982018FEF73F
:104F30007BFB0798404407903246089883685B697A
:104F400007A998475FEA0008D7D124E0B8F1000F1D
:104F500021D00D981399079C05900123079801FB18
:104F60000090049042460B980390F1190998029022
:104F700001200190009016982018FEF761FC079818
:104F8000404407903246089883685B6907A99847B0
:104F90005FEA0008DDD10B9881441098761C8642A8
:104FA000FFF676AF08A8FDF71EFD17B0BDE8F08F3D
:104FB0000D98109B0F9A0590CDF8109039460B98DC
:104FC0000390099802900120019000901698FEF736
:104FD00037FC17B0BDE8F08F2DE9F24F8EB0814657
:104FE00015461F46FDF7EEFC0790B0F90880B0F9B2
:104FF0000A60C0680C90079818300A9007980068FB
:1050000000690B9007A8FDF7EEFC0B98B849D0F8A3
:1050100004B0B6480068407C51F820100C69D4F800
:1050200000A0FFF7AAFB092838BF012003D31128ED
:1050300034BF0220042008900B98A04212D1002017
:10504000059033460A98049042460C9803900297C4
:1050500001200190009029460E98FEF7F1FB0FB059
:10506000BDE8F08F202F40F07B80089800FB08F00F
:10507000FDF791FC00280A9000F03481FDF7A2FCB6
:1050800006904846FDF79EFC079000F1180920693C
:1050900000283DD00898012804D0022804D0042814
:1050A00004D00CE0012302E0022300E0042306996F
:1050B000D4F810A042464846D04709EB88090020A2
:1050C000059001230698049042460020039029464B
:1050D0000898C00002906D1C0120019000900E986D
:1050E000FEF7AEFB761ED5D1F3E0069F59F8040B10
:1050F000D047641E27F8020BF8D11AE0DDF81870CB
:1051000059F8040BD047641E47F8040BF8D110E09F
:1051100008980128444604D00228E6D00428EDD09F
:1051200007E0069F59F8040BD047641E07F8010BEF
:10513000F8D10020059001230698049042460020F3
:10514000039029460898C00002906D1C0120019030
:1051500000900E98FEF774FB761E00F0BA80D7E739
:10516000102F40F0BF80089800FB08F0FDF713FCFB
:1051700000280A9000F0B680FDF724FC069048460F
:10518000FDF720FC079000F11809206900281EBFD8
:105190000B984069002860D00798B0F9080080009B
:1051A000FDF7F9FB5FEA000A19D0FDF70BFC0028B8
:1051B000099000F08E800898012804D0022811D0B0
:1051C00004281BD02DE0DDF82CC0069F0999DCF8DF
:1051D00014C0022342464846E047012319E000205C
:1051E000099076E0DDF82CC0069F0999DCF814C020
:1051F000022342464846E04702230AE0DDF82CC07D
:10520000069F0999DCF814C0022342464846E0474D
:1052100004230998D4F810C042463946E04709EB08
:10522000480900200590012306980490424600207A
:10523000039029460898C00002906D1C012001903F
:1052400000900E98FEF7FCFA761EB4D109A8FDF77F
:10525000CAFB5046FDF740FC3BE008980128444655
:1052600004D002280DD0042815D01DE0DDF81870F8
:1052700039F8020BD847D047641E07F8010BF7D165
:1052800012E0069F39F8020BD847D047641E27F872
:10529000020BF7D108E0069F39F8020BD847D04738
:1052A000641E47F8040BF7D10020059001230698EF
:1052B000049042460020039029460898C0000290BE
:1052C0006D1C0120019000900E98FEF7B9FA761E31
:1052D000C3D107A8FDF787FB06A8FDF784FB0A9852
:1052E000FDF7FAFB0FB0BDE8F08F0000B40100201D
:1052F000B8010020F0B5040081B00D46164619D063
:10530000FDF760FB009047696846FDF76CFB20469F
:10531000FDF782FD092800DB37B1324629462046D9
:10532000FFF75CFC01B0F0BD03463246294620463B
:10533000FFF752FE01B0F0BD0000000001000000C8
:1053400010B582B0684601F03BFF040068462000BB
:1053500016BD10B582B004006A460021200001F09D
:10536000E1FE13BD80B56B4601221649164801F0D7
:1053700079FF6B4600221549154801F073FF01BD06
:1053800000B583B001A800900023002200210E4840
:1053900001F0A2FF07BD80B56A4600210A4802F06D
:1053A0006DF801BD0B49096891F83710080080B20B
:1053B000704780B56B4600220749084801F052FF4C
:1053C00001BD0000FC440208248F0020B444020800
:1053D0004C8F0020D892002004450208748F0020D2
:1053E00030B581B0044602F0F6F805000AD0A542B7
:1053F00003D10025284601B030BDFDF7DBFA006A75
:10540000A042F2D1284601B030BD10B5040007D04B
:10541000FDF743FE2046FDF7CDFA8469FDF735FE22
:10542000204610BD30B5040083B01FD0FDF7CAFA86
:10543000019041484568A54206D1019949684160FB
:1054400011E06846FDF7CFFA6DB12846FDF7BAFACC
:1054500000904568A542F4D10198009940684860E1
:105460006846FDF7C0FA01A8FDF7BDFA03B030BDEC
:1054700030B5044681B0002020602F48056845B152
:105480002846FDF79FFA0090006920606846FDF706
:10549000AAFA284601B030BD30B504460D4681B0A9
:1054A000002028608CB12046FDF78CFA00908468BB
:1054B00044B16846FDF797FA2046FDF783FA00905D
:1054C000006928606846FDF78EFA204601B030BDBD
:1054D00070B5040082B02CD0FDF7DFFD164D2E68AC
:1054E000A6420AD13046FDF76DFA00908068286028
:1054F000684614E001A8FDF776FA3046FDF762FA37
:1055000001908668A642F5D13046FDF75BFA00901F
:105510000199806888606846FDF765FA01A8FDF783
:1055200062FA2046FFF77EFF2046FDF7D5FAFDF729
:10553000ACFD02B070BD00003C91002030B504000D
:1055400081B00D4613D0FDF7A8FD2046FDF73AFACD
:10555000009080892840441E6846A441FDF743FA24
:10556000E443FDF792FDE40F204601B030BD012475
:10557000204601B030BD040030B581B00C46FEF7C6
:105580000DFE0125009058B1009AD268526A092197
:1055900068469047020003D00098214690470025B6
:1055A000284601B030BD70B582B00C461546FEF7F6
:1055B000F5FD0126009060B1009AD268526A0A2176
:1055C00068469047030004D000982A462146984731
:1055D0000026304602B070BD70B582B00C4615464C
:1055E000FEF7DCFD0126009060B1009AD268526A95
:1055F0000B2168469047030004D000982A462146B4
:1056000098470026304602B070BD70B582B00C4697
:105610001546FEF7C3FD0126009060B1009AD268DE
:10562000526A032168469047030004D000982A4636
:10563000214698470026304602B070BD70B582B052
:105640000C461546FEF7AAFD0126009060B1009AAF
:10565000D268526A102168469047030004D000982F
:105660002A46214698470026304602B070BD70B5E4
:1056700082B00C461546FEF791FD0126009060B100
:10568000009AD268526A042168469047030004D009
:1056900000982A46214698470026304602B070BD41
:1056A00070B582B00C461546FEF778FD01260090D5
:1056B00060B1009AD268526A16216846904703008A
:1056C00004D000982A46214698470026304602B06A
:1056D00070BD200010B5514C6068FDF787F80020C0
:1056E000606010BD10B54D4C606868B920688000DE
:1056F000FDF786F8606008B9012010BD4848A06039
:1057000004F10800FEF7DFFC002010BDF0B581B009
:1057100000281CBF8468002C1BD0404D6968C1B1B3
:105720000668B6F5807F14DC2868B042B8BF06462C
:105730000027012EC0F20A8054F8040BFEF729FA64
:10574000696841F827007F1CB742F5DB686801B043
:10575000F0BD002001B0F0BDF0B581B000281CBF45
:105760008468002C1BD02D4D6968C1B10668B6F560
:10577000807F14DC2868B042B8BF06460027012E9F
:10578000C0F20A8054F8040BFEF703FA696841F886
:1057900027007F1CB742F5DB686801B0F0BD002030
:1057A00001B0F0BD2DE9F04F81B001F01EFF804641
:1057B0000025B8F1010F2EDB1A4EDFF86CB01B4C40
:1057C0002846FEF7EBFC10B3206890F81190457462
:1057D0002846FEF754FF092816DA30680069584554
:1057E00012D02846FEF759FF82460027BAF1010F72
:1057F0000ADBF8B2FEF7D6F90246F9B22846FFF7FF
:105800001DFF7F1C5745F4DB206880F811906D1C4C
:10581000361D4545D4DB01B0BDE8F08FD80100202E
:10582000D5560008B801002088430208B4010020C2
:1058300070B5054684B00C460FF220000FC86E46C6
:1058400086E80F002846FDF7B5F80169080003D087
:10585000019500946846884704B070BD00000000C0
:1058600000000000000000000000000010B5FDF77F
:1058700014FC11480068047EFDF707FC204610BDAB
:1058800030B581B00446FDF708FC0B480068057E82
:105890000476FDF7FAFB284601B030BD30B581B083
:1058A0000446FDF7FAFB04480068457E4476FDF7A0
:1058B000ECFB284601B030BDB401002030B581B00A
:1058C0000446FDF7EAFB05480068B0F92C508485D2
:1058D000FDF7DBFB284601B030BD00BFB40100205E
:1058E00030B581B00446FDF7D8FB05480068B0F933
:1058F0002A504485FDF7C9FB284601B030BD00BFE2
:10590000B401002030B581B00446FDF7C6FB054860
:105910000068C56904B1C461FDF7B7FB284601B052
:1059200030BD00BFB401002030B581B00446FDF7A2
:10593000B4FB04480068857E8476FDF7A6FB284604
:1059400001B030BDB401002070B586B004460D46EC
:10595000FDF7A3FB0A490B48096850F8210000260F
:1059600048B10E21029100940195CDF814D002A9FE
:10597000FDF750FC0126FDF788FB304606B070BDF0
:10598000D88C0020C88C002030B581B004460D466C
:10599000FDF783FB0648B0F9000020600548B0F928
:1059A0000000286001B0BDE83040FDF76EBB00008C
:1059B0004A9300204C93002030B581B00446FDF797
:1059C0006CFB002514B909480068046E44B12046F8
:1059D000FCF7F8FF0090B0F90A506846FDF703F8AD
:1059E000FDF753FB284601B030BD00BFB4010020D5
:1059F00030B5040081B00D4602D10B480068046E3A
:105A000084B1FDF74AFB2046FCF7DCFF0090B0F9BB
:105A10000A008542BCBF009845816846FCF7E3FF59
:105A2000FDF733FB01B030BDB401002070B582B08A
:105A3000060001BF19480068066E002E0C46154688
:105A40002AD0FDF72AFB3046FCF7BCFF0090C5804A
:105A500000988480FEF716F800984069B8B1FCF70A
:105A6000B1FF019000980199B0F9080088800028E2
:105A70000099019AB1F90A10D18018BF002903D00A
:105A8000019804800198458001A8FCF7ACFF6846A6
:105A9000FCF7A9FFFDF7F9FA02B070BDB4010020D0
:105AA00010B582B0040001BF0E480068046E002CDF
:105AB00016D0FDF7F2FA2046FCF784FF0190446906
:105AC00001A8FCF790FF4CB12046FCF77BFF00904B
:105AD0008168896888476846FCF785FFFDF7D5FA35
